:03000000020FD319
:0C0FD300787FE4F6D8FD75816002101AEA
:040006007F0ADFFE90
:01000A0022D3
:081527007F367EC7DEFEDFFC0B
:01152F002299
:0D14D200007F087E017DF3DDFEDEFCDFFA09
:0114DF0022EA
:10144A00D2B3C2B3121527D2B320B3FD30B3FD20F5
:03145A00B3FD22BD
:1012840012144AE4FDFCE4F9FBFA30B3FD12000643
:1012940030B308752D0130B30580FBE4F52DE92545
:1012A400E0452DF90BBB00010AEB64084A70DB74BE
:1012B400102DF8A6010DBD00010CED64054C70C69F
:0112C4002207
:1010E1008B278A288929121284AF11EF3395E0FEEC
:1010F100AD10ED3395E0FCED2FFFEC3EFEAD12EDB2
:101101003395E0FCEF2DFFEE3CFEAD13ED3395E0A2
:10111100FCEF2DFFEE3CFEAD14ED3395E0FCEFB599
:10112100051DEEB50419AB2AAA2BA92CE510120D49
:101131000DAB27AA28A929E512120D0D7F0022ABBC
:101141002AAA2BA92C74FF120D0DAB27AA28A929B5
:06115100120D0D7F0122CA
:0614A500C2A18F80D2A25B
:0814AB007FC8AE071FEE70FAC6
:0114B3002216
:0A150900C2A01214A5C2A20214AB86
:0A151300D2A01214A5C2A20214AB6C
:10000E007F381215097F0C1215097F061215097F0C
:04001E0001021509BD
:0612C5008B3E8A3F8940C8
:1012CB00EF7006ED2480FF8004ED24C0FF1215099A
:1012DB00AB3EAA3FA940120CF460130540E54070E9
:0E12EB0002053F14F9120CF4FF12151380E2F5
:0112F90022D2
:081239008F278D288A298B2ADA
:10124100E4FBEBC3952B503AE52770047F808002C5
:101251007FC0E5282F252B14C39BFF121509AE294A
:10126100AF2A7C007D0A120D1FED2430FF121513E9
:10127100AE29AF2A7C007D0A120D1F8E298F2A0B01
:0212810080C02B
:011283002248
:100699005B44454255475D20524157204255463AF1
:1006A90020000D0A002564202564005B444542555D
:1006B900475D20444143204F55542054454D503AFD
:1006C900200025750D0A005B44454255475D2044CD
:1006D9004143204F55542048554D493A20005B4429
:1006E900454255475D2052415720465245512042C7
:1006F90055463A20002564005B44454255475D2034
:10070900444143204F555420465245513A20004315
:100719004D443A0020202020202020202020202085
:10072900202020200054454D50455220414C415233
:100739004D0D0A0048554D4920414C41524D0D0A75
:10074900004652455120414C41524D0D0A00544535
:100759004D504552204E4F524D414C0D0A004855BF
:100769004D49204E4F524D414C0D0A0046524551BC
:10077900204E4F524D414C0D0A0020434845434BF2
:1007890053554D3A005B44454255475D2043484522
:10079900434B53554D204F4B0D0A0048414C4620C1
:1007A90056414C55453A20005B44454255475D202A
:1007B900434845434B53554D204552524F520D0A1C
:1007C900005B44454255475D20554152545F496E8F
:1007D90069740D0A005B44454255475D204C43440A
:1007E9005F496E69740D0A005B44454255475D20B7
:1007F90054696D6572305F496E69740D0A005B4416
:10080900454255475D20494E54305F496E69740D24
:100819000A005B44454255475D20496E697420448E
:100829006F6E650D0A005741495420434D442020FD
:100839002020202000465245513A20202020202007
:1008490020487A00465245513A257500465245518D
:100859003A257520434845434B53554D3A25750D67
:100869000A0054656D703A20202020430048756DB8
:10087900693A202020202500543A257520483A2538
:100889007500543A257520483A2575204348454353
:100899004B53554D3A25750D0A005B444542554762
:1008A9005D204448543131204641494C0D0A0044E9
:1008B90048543131204641494C0D0A00202020205E
:0B08C9002020202020202020202000E4
:10141300C114010800C113010F00010E00C1120124
:0C1423000B00020C000002090000C19543
:041535000000002290
:0F14B400D291D290121535C291121535C29022E5
:0E14E000C290C291121535D290D291021535EC
:0313D3001213AD45
:1013D600E4FFD291D2903091100FEFD394FA74803B
:0D13E600948040F2C2907F0122C2907F00EF
:0113F30022D7
:1013AD00E4FEEEC39408748094805017C290EF3021
:1013BD00E7028001C39291EF25E0FFD2901215351F
:0513CD000E80DFC2905C
:0113D20022F8
:10143000AD071214B47F901213D37F401213D3AFB1
:0A144000051213AD1213D60214E0DA
:1013F400E4FFEFC39414748094805012E4FEEEC3AF
:0E14040094FA7480948050030E80F30F80E4FD
:0114120022B7
:060E6D008B3E8A3F894024
:100E7300E4F541F542F543F5447BFF7A067999128F
:100E83001335AB3EAA3FA94012133512132F754AEF
:100E9300FF754B06754CAE754D00754E00754F4191
:100EA300755000755100755243AB3EAA3FA94012DD
:100EB3000400AF421214307BFF7A0679B412133563
:100EC300754500854246754AFF754B06754CCB85C3
:100ED300454D85464E7B017A0079141200827B01D1
:070EE3007A007914121335A7
:100EEA001213F4AF441214307BFF7A0679D012132E
:010EFA0035C2
:100EFB00754500854446754AFF754B06754CCB8589
:100F0B00454D85464E7B017A00791C1200827B0190
:070F1B007A00791C12133566
:030F22000213F4C3
:061157008B3E8A3F894037
:10115D00E4F541F5427BFF7A0679E7121335AB3E94
:10116D00AA3FA94012133512132F754AFF754B066E
:10117D00754CFE754D00754E00754F41AB3EAA3F47
:10118D00A940120400AF421214307BFF7A07790197
:03119D00121335F5
:1011A000754300854244754AFF754B06754CCB85E7
:1011B000434D85444E7B017A0079141200827B01F5
:0711C0007A007914121335C7
:0311C7000213F41C
:0612FA007B017A0079007F
:061300008B3E8A3F89408C
:10130600E4FFFEAB3EAA3FA940120CF4601A05406A
:10131600E5407002053F14F9120CF4FD3395E0FC2C
:08132600ED2FFFEC3EFE80DB21
:01132E00229C
:10145D00759850438920758DFD758BFDD28ED2AC5C
:03146D00D2AF22D9
:101483005389F0438901758C3C758AB0D2A9D28CFB
:011493002236
:0E14EE0053890F438950E4F58DF58BD28E2281
:03153900D2882233
:06132F007BFF7A0679AB9A
:101335008B478A488949AB47AA48A949120CF460EA
:10134500160549E5497002054814F9120CF4F5999A
:081355003099FDC29980DF22EE
:030023000208D4FC
:1008D400C0E0C0F0C083C082C0D075D000C000C0EA
:0D08E40001C002C003C004C005C006C0076B
:1008F100209803020AEDAF99C298E50FC3941774CB
:10090100809480501AEF640D6015EF640A6010AE98
:100911000F050F74242EF582E43400F583EFF0EF18
:10092100640D6008EF640A6003020AEDD3E50F94D9
:1009310000748094805003020AED7424250FF5821F
:10094100E43400F583E4F07541FF754207754318FF
:10095100F5447545047B017A0079241211CAEF33FD
:1009610095E04F6003020A40C3E50F94057480943B
:06097100805003020A4061
:10097700900028E0F53DE53DB45302D214E53DB4BF
:100987004502C214E53DB44124750E00750C00758F
:100997000D00C2127BFF7A07791DE4FDFF1212C515
:1009A7007BFF7A07791DE4FD7F011212C5E53D64DF
:1009B700427023750E01F50CF50DF50BC2127BFF86
:1009C7007A07791DFDFF1212C57BFF7A07791DE4AF
:1009D700FD7F011212C5E53DB4580BC2927BFF7A29
:1009E70007792E121335E53DB4590BC2937BFF7A75
:1009F70007793D121335E53DB45A0BC2947BFF7A54
:100A070007794A121335E53DB4780BD2927BFF7A0A
:100A1700077957121335E53DB4790BD2937BFF7AEB
:100A2700077967121335E53D647A6003020AEAD253
:070A3700947BFF7A0779753B
:100A3E0080707541FF7542077543837B017A00799B
:100A4E002412105FEA494B605EE4120D0DE9240A90
:100A5E00F9E43AFA120F258E3B8F3C7B017A00792E
:100A6E0024121300E53C6F7003E53B6E702E7BFF86
:100A7E007A07798E1213357BFF7A0779A412133514
:100A8E007B017A00792412133512132FAF0EEF70FB
:100A9E0002802EAF0EEF6401704280377BFF7A0723
:100AAE0079B112133580357BFF7A0779A41213358D
:100ABE007B017A00792412133512132FAF0EEF70CB
:100ACE000B7B017A007924120E6D8010AF0EEF644D
:0F0ADE000170097B017A007924121157750F00FE
:100AED00D007D006D005D004D003D002D001D0005D
:0B0AFD00D0D0D082D083D0F0D0E03207
:03000B0002135D80
:10135D00C0E0C0D075D000C007758C3C758AB00553
:10136D000BAF0BC3EF9414748094804005750B0084
:09137D00D212D007D0D0D0E0322A
:030003000214FCE8
:0D14FC00C0E0050DE50D7002050CD0E032DA
:100B08007BFF7A0779CA12133512145D7BFF7A07C7
:100B180079DE12133512000E7BFF7A0779F1121372
:100B2800351214837BFF7A087907121335121539A9
:100B3800D2AF7BFF7A08791B1213357BFF7A0879CD
:100B48002FE4FDFF1212C530140BAF0EEF640170D5
:100B580004D2A88002C2A8201403020CCEAF0EEF64
:100B680064017066201203020CEEC212C2AF850C3B
:100B780009850D0AF50CF50DD2AF7BFF7A08793E91
:100B8800FDFF1212C5752B05AB0AAA097D06E4FF05
:100B9800121239754AFF754B08754C4D85094D85FC
:100BA8000A4E7B017A0079001200821212FA8E2511
:100BB8008F26754AFF754B08754C5585094D850A72
:100BC8004E85254F852650020C72AF0EEF6003024A
:100BD8000CEE201203020CEEC212C2AFF52A752BDE
:100BE80000752C24FB7A0079231210E1EF600302D0
:100BF8000C83D2AF7BFF7A08796BFDFF1212C57B9D
:100C0800FF7A087976E4FD7F011212C5E523FB7AA5
:100C180000752B027D06E4FF121239E524FB7A00E9
:100C2800752B027D067F01121239754AFF754B0834
:100C3800754C81754D0085234E754F008524507B7A
:100C4800017A0079001200821212FA8E258F267519
:100C58004AFF754B08754C8B754D0085234E754FB3
:100C6800008524508525518526527B017A0079001C
:100C78001200827B017A0079008046D2AF7BFF7A2E
:100C88000879A31213357BFF7A08796BE4FDFF120C
:100C980012C57BFF7A087976E4FD7F011212C575CB
:100CA8002B027B637A007D06E4FF121239752B0252
:100CB8007B637A007D067F011212397BFF7A0879FF
:100CC800B81213358020E4F50CF50D7BFF7A08790E
:100CD8002FFDFF1212C57BFF7A0879C5E4FD7F015D
:0C0CE8001212C51214D21213F4020B4FAA
:100FDF00020B08E493A3F8E493A34003F68001F215
:100FEF0008DFF48029E493A3F85407240CC8C33313
:100FFF00C4540F4420C8834004F456800146F6DFE2
:10100F00E4800B0102040810204080901413E47E4A
:10101F00019360BCA3FF543F30E509541FFEE493D6
:10102F00A360010ECF54C025E060A840B8E493A39D
:10103F00FAE493A3F8E493A3C8C582C8CAC583CAC8
:10104F00F0A3C8C582C8CAC583CADFE9DEE780BE80
:01142F0000BC
:100CF400BB010689828A83E0225002E722BBFE02FE
:090D0400E32289828A83E4932230
:100D0D00BB010689828A83F0225002F722BBFE01C5
:020D1D00F322BF
:100D1F00BC000BBE0029EF8DF084FFADF022E4CCB8
:100D2F00F875F008EF2FFFEE33FEEC33FCEE9DEC81
:100D3F00984005FCEE9DFE0FD5F0E9E4CEFD22EDC7
:100D4F00F8F5F0EE8420D21CFEADF075F008EF2F11
:100D5F00FFED33FD4007985006D5F0F222C398FD02
:050D6F000FD5F0EA229F
:10002600E556244AF8E60556227847301002784A03
:10003600E475F001120E03020CF42009EB7F2ED2B8
:10004600098018EF540F2490D43440D4FF300D0BA0
:10005600EF24BFB41A0050032461FFE55760021570
:1000660057055AE55A7002055930100D7847E47560
:10007600F001120E03EF020D0D0213867403D21067
:100086008003E4C210F5568B478A488949E4F55740
:10009600F559F55AE55760077F2012006180F5751E
:1000A60058FFC20AC209C20BC20CC20EC20FC2114D
:1000B60012002FFF700D3010057F00120072AF5A2C
:1000C600AE5922B4255FC2D5C20D12002FFF24D02F
:1000D600B40A00501A75F00A785730D50508B6FFED
:1000E6000106C6A426F620D5047002D20C80D924B7
:1000F600CFB41A00EF5004C2E5D20D020272D20A42
:1001060080C6D20980C0D20B80BCD2D580BAD20EAE
:1001160080B47F20120061200B077401B5570040A0
:10012600F1120026FF12006102009AD211D20F804E
:1001360095120026FB120026FA120026F94A4B7089
:100146000679437A037BFF200B2EE557602A7E0053
:100156008E82758300120D7460060EEE655870F07F
:10016600C2D5EBC0E0EAC0E0E9C0E0EE1202B9D0C9
:10017600E0F9D0E0FAD0E0FB120CF4FF60AAEBC085
:10018600E0EAC0E0E9C0E0120061D0E02401F9D065
:10019600E03400FAD0E0FBE5580460DCD558D9809D
:1001A600877BFF7A0279B5D20B809C791080027921
:1001B60008C20FC2118008D2D5790A8004790AC212
:1001C600D5E558047002F558E4FAFDFEFF12002644
:1001D600FC7B08200A13120026FD7B1030090A1248
:1001E6000026FE120026FF7B20EC3382D592D550E6
:1001F60013C3E43009069FFFE49EFEE4200A039D34
:10020600FDE49CFCE4CBF8C20AEC700CCFCECDCC5E
:10021600E824F8F870F38017C3EF33FFEE33FEEDF2
:1002260033FDEC33FCEB33FB994002FB0FD8E9EBD3
:10023600300A05F8D0E0C448B20AC0E00AEC4D4ED8
:100246004F78207B0070C2EAB5580040BCC0E0126F
:1002560002BBD0F0D0E0200A04C4C0E0C4B20AC099
:10026600F012004AD0F0D5F0EB02009A120E2301EC
:10027600375301B15801084C01044201B54F01BD85
:0F0286004401BD49011D4301C35501A74601A70E
:100295004501A747036350010C2D01102E01332B97
:1002A500011423013120034C2A00CC480000012B06
:1002B5003F3F3F00790AA2D5200C14300E09B91032
:1002C500020404B9080104A2D5200F02500104203C
:1002D5000B68920BB557005034C0E07F20300C19E5
:1002E5007F30A20B720F720E500F120312C20BC297
:1002F5000FC20EC2117F30800F300E03E9C0E0122D
:100305000061300E03D0E0F9D0E0B557CC300E17C0
:100315007F30B9100C1200617F58300D077F78804F
:1003250003B90803120061300B057F2D0200617FC0
:10033500202011F87F2B200FF322920B80CF286EFF
:10034500756C6C2900D20A120026300AF8C20A78A8
:100355005730D50108F60200CC2D504349581200FC
:10036500262403B405004001E490035E9312005275
:0D037500743A120052D20C7557040201B107
:10038200E55C300C0104F82328244AF8227847302F
:100392000C02784AE475F001120E03020CF460ECD0
:1003A200C5607002155F14C560200C04FF02153091
:1003B200784774FFF5F0020E13FF021470E55D60DA
:1003C20006D55D037F0022200C0F121494EF600803
:1003D2000560E5607002055F227847120DFA120C83
:1003E200F4FF60E97847E475F001120E0380DE1233
:1003F20003C9EFC0E01203BBD0E040F380A0D20CEF
:100402008002C20C8B478A488949E4F55EF55CF5A7
:100412005FF560755D00C20BC209C20AC20D12030C
:100422008FFF7005AF5E7E0022B4253012038FFF6E
:1004320024D0B40A00500C75F00AC55DA4255DF500
:100442005D80E924CFB41A00EF5002C2E5020665CE
:10045200D20A80D8D20980D4D20D80D0EF1203BB49
:1004620050081203F1EF600E80A9EFC0E01203C939
:10047200D0E06F609EEF60741203A080A71203C9E0
:10048200EF6069E55D7007055D80031203C9EF60E7
:1004920014200D0E120382E475F001120E03EF1206
:1004A2000D0DD55DE6200D04055C055E80BA1203D4
:1004B200BFEFC0E01203BBD0E050041203A0E4FF80
:1004C200200D0E120382E475F001120E03EF120DDD
:1004D2000DEF70DA200D04055C055E808BE55D6032
:1004E20002055D1203F11203BFEF70C6300C04E483
:1004F2001203A0E55E60030204267EFF7FFF222036
:100502000D1174FFFCFDFEFF120382120DFA120D93
:10051200E0055C020415D0E080D27900800A7910EF
:10052200800679088002790AD20EE55D6002055DD7
:10053200E9C0E01203F1EF60DD1203C9BF2D04D25E
:100542000B8003BF2B091203F1EF60CA1203BFD065
:10055200E0B40A028033B40802802EBF3027700252
:100562007408C20EC0E01203BFD0E0BF780280035D
:10057200BF5816055DD55D028007D55D04D20E8099
:100582000B741080197002740ABF000AEFF8E4FCC1
:10059200FDFEFF020618C0E0EF1203A0D0E0F9E46E
:1005A200FCFDFEFFE9C0E0ECC0E0EDC0E0EEC0E023
:1005B200EFC0E01203BFEFF8D0E0FFD0E0FED0E0E2
:1005C200FDD0E0FCD0F0E8604DB461004007B47BA0
:1005D200005002C2E524D0503DFA24F6500724F917
:1005E2005034240AFAEAB5F000502BCFA9F0A42F18
:1005F200FF92D5E9C5F0CEA4A2D53EFE92D5E9C5BB
:10060200F0CDA4A2D53DFD92D5E9C5F0CCA4A2D5EA
:0B0612003CFCC20E808EE8C0E0200D12
:10061D002A200E08055E300B03120DD21203821232
:10062D000DFA055C20090B200A0DEE8FF0120DB3AB
:10063D008009120DE08004EF120D0DD0E01203A021
:10064D00020415200D10120382120DFA055CE55FF0
:10065D008560F0120DB380E8120E2304DF530520E0
:10066D005804564C045242042E4805244F05284484
:10067D00047F43051C49052855050146050145051F
:0C068D000147045A2A06504E0000045E8B
:1011CA008B3E8A3F8940AB41AA42A943120CF4FEE6
:1011DA00AB3EAA3FA940120CF4FF6E702BEF600DD4
:1011EA00E54515457002154414454470037F0022F5
:1011FA0074012540F540E4353FF53F74012543F578
:10120A0043E43542F54280BEAB3EAA3FA940120CE8
:10121A00F4FDD3EE6480F8ED64809840037F0122E8
:0F122A00AB41AA42A943120CF4FFC3ED9FFF2270
:10105F008B3E8A3F8940AB41AA42A943120CF460F0
:10106F0063AB3EAA3FA940120CF4605F85414485F3
:10107F0042458543468B478A488949AB44AA45A9CF
:10108F0046120CF4FF6023AB47AA48A949120CF48F
:10109F006F7017042546F546E43545F5457401256F
:1010AF0049F549E43548F54880D1AB44AA45A946EE
:1010BF00120CF47002800D74012540F540E4353FA9
:1010CF00F53F809DAB3EAA3FA940227B007A007975
:0210DF000022ED
:100F25008B3E8A3F8940AB3EAA3FA940120CF4FF95
:100F3500121470500D74012540F540E4353FF53F1E
:100F450080E4D209AB3EAA3FA940120CF4FF642B02
:100F55006004EFB42D1BAB3E0540E540AA3F70028F
:100F6500053F14F9120CF4642D6003D38001C3927C
:100F750009E4F541F542AB3EAA3FA940120CF4FF46
:100F85001214C35036AB3EAA3FA940120CF4FF33EE
:100F950095E0FEEF24D0FBEE34FFFAAE41AF427C84
:100FA500007D0A120DA1EF2BF542EE3AF5417401D1
:100FB5002540F540E4353FF53F80BB300906AE419D
:0E0FC500AF428009C3E49542FFE49541FE224D
:100D7400BB010CE58229F582E5833AF583E0225034
:100D840006E92582F8E622BBFE06E92582F8E2227E
:0D0D9400E58229F582E5833AF583E4932298
:100DA100EF8DF0A4A8F0CF8CF0A428CE8DF0A42E66
:020DB100FE2220
:100DB300BB010A89828A83F0E5F0A3F0225006F78B
:0F0DC30009A7F01922BBFE06F3E5F009F3192288
:0E0DD200C3E49FFFE49EFEE49DFDE49CFC2232
:100DE000BB010789828A83020E555005E9F8020E7D
:0A0DF00049BBFE05E9F8020E61227E
:090DFA00E6FB08E6FA08E6F9221E
:100E0300FAE6FB0808E6F925F0F618E6CA3AF622F0
:100E1300FAE6FB0808E625F0F9F618E63AFAF622B0
:100E2300D083D082F8E4937012740193700DA3A35E
:100E330093F8740193F5828883E473740293686072
:060E4300EFA3A3A380DF72
:10138600EFB40A07740D121391740A309811A899D4
:10139600B8130CC2983098FDA899C298B811F630C7
:0713A60099FDC299F599229F
:1014940010160B12151DBF0D027F0A021386AF151D
:0114A4002225
:051530008F15D2162208
:0F14C300EFC394304007EF943A50028001C322E8
:10147000EFC394094005EF940E4003BF2003D380CF
:0314800001C32283
:0C0E4900ECF608EDF608EEF608EFF622D5
:0C0E5500ECF0A3EDF0A3EEF0A3EFF02210
:0C0E6100ECF208EDF208EEF208EFF222CD
:0A151D003098FDAF99C2987E0022BD
:00000001FF
