:03000000020F5B91
:0C0F5B00787FE4F6D8FD758153020FA2E8
:041244007F0ADFFE40
:011248002283
:08123B007F367EC7DEFEDFFCFA
:011243002288
:0D11FE00007F087E017DF3DDFEDEFCDFFAE0
:01120B0022C0
:1011B800D290C29012123BD2902090FD3090FD2028
:0311C80090FD2275
:1010A8001211B8E4FDFCE4F9FBFA3090FD12124489
:1010B800309008753E0130900580FBE4F53EE92547
:1010C800E0453EF90BBB00010AEB64084A70DB748B
:1010D8004F2DF8A6010DBD00010CED64054C70C63E
:0110E80022E5
:100FE7008B388A39893A1210A8AF50EF3395E0FE53
:100FF700AD4FED3395E0FCED2FFFEC3EFEAD51ED2F
:101007003395E0FCEF2DFFEE3CFEAD52ED3395E05E
:10101700FCEF2DFFEE3CFEAD53ED3395E0FCEFB555
:10102700051DEEB50419AB3BAA3CA93DE54F120DD2
:10103700EFAB38AA39A93AE551120DEF7F0022AB81
:101047003BAA3CA93D74FF120DEFAB38AA39A93A68
:06105700120DEF7F0122E3
:0611EF00C2A18F80D2A214
:0811F5007FC8AE071FEE70FA7F
:0111FD0022CF
:0A122700C2A01211EFC2A20211F5DD
:0A123100D2A01211EFC2A20211F5C3
:1011A4007F381212277F0C1212277F061212277F14
:0411B40001021227FB
:0610E9008B4C8A4D894E7C
:1010EF00EF7006ED2480FF8004ED24C0FF1212275D
:1010FF00AB4CAA4DA94E120DD66013054EE54E709E
:0E110F0002054D14F9120DD6FF12123180E2C6
:01111D0022AF
:08105D008F388D398A3A8B3B74
:10106500E4FBEBC3953C503AE53870047F80800281
:101075007FC0E5392F253C14C39BFF121227AE3ADA
:10108500AF3B7C007D0A120E01ED2430FF121231B8
:10109500AE3AAF3B7C007D0A120E018E3A8F3B0BB8
:0210A50080C009
:0110A7002226
:100CE50020202020202020202020202020202020FF
:100CF500005B44454255475D20554152545F496E5E
:100D050069740D0A005B44454255475D204C4344D8
:100D15005F496E69740D0A005B44454255475D2085
:100D250054696D6572305F496E69740D0A005B44E4
:100D3500454255475D20494E54305F496E69740DF3
:100D45000A005B44454255475D20496E697420445D
:100D55006F6E650D0A005741495420434D442020CC
:100D65002020202000465245513A202020202020D6
:100D750020487A00465245513A25750D0A005465BA
:100D85006D703A20202020430048756D693A202077
:100D950020202500543A257520483A25750D0A006E
:100DA5005B44454255475D20444854313120464116
:100DB500494C0D0A004448543131204641494C0DF7
:100DC5000A00202020202020202020202020202054
:010DD500001D
:10118A00C10B010800C10A011F00C109011C0002AC
:09119A001D0000021A0000C18CC6
:1011CB00759850438920758DFD758BFDD28ED2ACF1
:0311DB00D2AF226E
:1011DE005389F0438901758C3C758AB0D2A9D28CA3
:0111EE0022DE
:0E120C0053890F438950E4F58DF58BD28E2265
:03124900D2882226
:10111E008B388A39893AAB38AA39A93A120DD6607A
:10112E0016053AE53A7002053914F9120DD6F599FD
:08113E003099FDC29980DF2207
:03002300020EB911
:100EB900C0E0C0F0C083C082C0D075D000C000C0FF
:100EC90001C002C003C004C005C006C0073098674E
:100ED900859908D20AC298E508B45302D20BE508ED
:100EE900B44502C20BE508B44124751F00751D0005
:100EF900751E00C2097BFF7A0C79E5E4FDFF12102B
:100F0900E97BFF7A0C79E5E4FD7F011210E9E50838
:100F190064427023751F01F51DF51EF51CC2097B7E
:100F2900FF7A0C79E5FDFF1210E97BFF7A0C79E570
:100F3900E4FD7F011210E9D007D006D005D004D016
:100F490003D002D001D000D0D0D082D083D0F0D04D
:020F5900E03284
:03000B0002116D72
:10116D00C0E0C0D0758C3C758AB0051CE51CC394DD
:0D117D00144005751C00D209D0D0D0E0321E
:0300030002121ACC
:0D121A00C0E0051EE51E7002051DD0E0328B
:100B5C007BFF7A0C79F612111E1211CB7BFF7A0DEA
:100B6C00790A12111E1211A47BFF7A0D791D121134
:100B7C001E1211DE7BFF7A0D793312111E121249EF
:100B8C00D2AF7BFF7A0D794712111E7BFF7A0D795C
:100B9C005BE4FDFF1210E9300B09E51FB40104D230
:100BAC00A88002C2A8200B03020CC2E51F640170CE
:100BBC003D3009E3C209C2AF851D1A851E1BF51D08
:100BCC00F51ED2AF7BFF7A0D796AFDFF1210E97525
:100BDC003C05AB1BAA1A7D06E4FF12105D753BFFAA
:100BEC00753C0D753D79851A3E851B3F806BE51F65
:100BFC0070A53009A2C209C2AFF53B753C00753D2A
:100C0C0023FB7A007922120FE7EF705ED2AF7BFFE5
:100C1C007A0D7983FDFF1210E97BFF7A0D798EE452
:100C2C00FD7F011210E9E522FB7A00753C027D067E
:100C3C00E4FF12105DE523FB7A00753C027D067F14
:100C4C000112105D753BFF753C0D753D99753E00AD
:100C5C0085223F7540008523417B007A0079241260
:100C6C00085C7B007A0079248046D2AF7BFF7A0D3A
:100C7C0079A512111E7BFF7A0D7983E4FDFF12100A
:100C8C00E97BFF7A0D798EE4FD7F011210E9753C4A
:100C9C00027B637A007D06E4FF12105D753C027BDB
:100CAC00637A007D067F0112105D7BFF7A0D79BAA5
:100CBC0012111E020BA3E4F51DF51E7BFF7A0D79B4
:100CCC005BFDFF1210E97BFF7A0D79C7E4FD7F0114
:090CDC001210E91211FE020BA333
:100F6700020B5CE493A3F8E493A34003F68001F239
:100F770008DFF48029E493A3F85407240CC8C3338B
:100F8700C4540F4420C8834004F456800146F6DF5A
:100F9700E4800B010204081020408090118AE47E4F
:100FA700019360BCA3FF543F30E509541FFEE4934F
:100FB700A360010ECF54C025E060A840B8E493A316
:100FC700FAE493A3F8E493A3C8C582C8CAC583CA41
:100FD700F0A3C8C582C8CAC583CADFE9DEE780BEF9
:0111A300004B
:100DD600BB010689828A83E0225002E722BBFE021B
:090DE600E32289828A83E493224E
:100DEF00BB010689828A83F0225002F722BBFE01E3
:020DFF00F322DD
:100E0100BC000BBE0029EF8DF084FFADF022E4CCD5
:100E1100F875F008EF2FFFEE33FEEC33FCEE9DEC9E
:100E2100984005FCEE9DFE0FD5F0E9E4CEFD22EDE4
:100E3100F8F5F0EE8420D21CFEADF075F008EF2F2E
:100E4100FFED33FD4007985006D5F0F222C398FD1F
:050E51000FD5F0EA22BC
:10080000E547243BF8E60547227838300702783B75
:10081000E475F001120E83020DD62000EB7F2ED27C
:10082000008018EF540F2490D43440D4FF30040BD0
:10083000EF24BFB41A0050032461FFE5486002159D
:1008400048054BE54B7002054A30070D7838E475D2
:10085000F001120E83EF020DEF0211467403D2076E
:100860008003E4C207F5478B388A39893AE4F548B2
:10087000F54AF54BE54860077F2012083B80F57587
:1008800049FFC201C200C202C203C205C206C208B9
:10089000120809FF700D3007057F0012084CAF4B9E
:1008A000AE4A22B4255FC2D5C204120809FF24D083
:1008B000B40A00501A75F00A784830D50508B6FF1A
:1008C0000106C6A426F620D5047002D20380D924DE
:1008D000CFB41A00EF5004C2E5D204020A4CD20190
:1008E00080C6D20080C0D20280BCD2D580BAD205E8
:1008F00080B47F2012083B2002077401B5480040F5
:10090000F1120800FF12083B020874D208D20680D8
:1009100095120800FB120800FA120800F94A4B7001
:1009200006791D7A0B7BFF20022EE548602A7E00A7
:100930008E82758300120E5660060EEE654970F0C9
:10094000C2D5EBC0E0EAC0E0E9C0E0EE120A93D005
:10095000E0F9D0E0FAD0E0FB120DD6FF60AAEBC0C0
:10096000E0EAC0E0E9C0E012083BD0E02401F9D0A1
:10097000E03400FAD0E0FBE5490460DCD549D980D9
:10098000877BFF7A0A798FD202809C791080027966
:1009900008C206C2088008D2D5790A8004790AC242
:1009A000D5E549047002F549E4FAFDFEFF1208009E
:1009B000FC7B08200113120800FD7B1030000A1296
:1009C0000800FE120800FF7B20EC3382D592D55040
:1009D00013C3E43000069FFFE49EFEE42001039D64
:1009E000FDE49CFCE4CBF8C201EC700CCFCECDCC86
:1009F000E824F8F870F38017C3EF33FFEE33FEED11
:100A000033FDEC33FCEB33FB994002FB0FD8E9EBF1
:100A1000300105F8D0E0C448B201C0E00AEC4D4E08
:100A20004F78207B0070C2EAB5490040BCC0E0129C
:100A30000A95D0F0D0E0200104C4C0E0C4B201C0E7
:100A4000F0120824D0F0D5F0EB020874120E9309CE
:100A50001153098B5808E24C08DE42098F4F099761
:0F0A60004409974908F743099D550981460981C3
:100A6F00450981470B3D5008E62D08EA2E090D2B4D
:100A7F0008EE23090B200B262A08A64800000905BB
:100A8F003F3F3F00790AA2D5200314300509B91062
:100A9F00020404B9080104A2D52006025001042063
:100AAF0002689202B548005034C0E07F203003192D
:100ABF007F30A20272067205500F120AECC202C2F8
:100ACF0006C205C2087F30800F300503E9C0E0126F
:100ADF00083B300503D0E0F9D0E0B548CC3005171E
:100AEF007F30B9100C12083B7F583004077F788095
:100AFF0003B9080312083B3002057F2D02083B7F24
:100B0F00202008F87F2B2006F322920280CF286E38
:100B1F00756C6C2900D2011208003001F8C20178FF
:100B2F004830D50108F60208A62D5043495812083F
:100B3F00002403B405004001E4900B389312082CF5
:0D0B4F00743A12082CD20375480402098B79
:100E5600BB010CE58229F582E5833AF583E0225051
:100E660006E92582F8E622BBFE06E92582F8E2229B
:0D0E7600E58229F582E5833AF583E49322B5
:100E8300FAE6FB0808E6F925F0F618E6CA3AF62270
:100E9300D083D082F8E4937012740193700DA3A3EE
:100EA30093F8740193F5828883E473740293686002
:060EB300EFA3A3A380DF02
:10114600EFB40A07740D121151740A309811A89958
:10115600B8130CC2983098FDA899C298B811F63009
:0711660099FDC299F59922E1
:00000001FF
