:03000000020CF1FE
:0C0CF100787FE4F6D8FD75815C020D38B8
:040006007F0ADFFE90
:01000A0022D3
:0810E6007F367EC7DEFEDFFC51
:0110EE0022DF
:0D108400007F087E017DF3DDFEDEFCDFFA5B
:01109100223C
:10100B00D2B3C2B31210E6D2B320B3FD30B3FD207E
:03101B00B3FD2200
:100EB10012100BE4FDFCE4F9FBFA30B3FD1200065D
:100EC10030B308752B0130B30580FBE4F52BE92520
:100ED100E0452BF90BBB00010AEB64084A70DB7497
:100EE100102DF8A6010DBD00010CED64054C70C676
:010EF10022DE
:100D7D008B258A268927120EB1AF11EF3395E0FE30
:100D8D00AD10ED3395E0FCED2FFFEC3EFEAD12ED19
:100D9D003395E0FCEF2DFFEE3CFEAD13ED3395E00A
:100DAD00FCEF2DFFEE3CFEAD14ED3395E0FCEFB501
:100DBD00051DEEB50419AB28AA29A92AE5101209BB
:100DCD00B8AB25AA26A927E5121209B87F0022ABD8
:100DDD0028AA29A92A74FF1209B8AB25AA26A92782
:060DED001209B87F01228B
:06106600C2A18F80D2A29E
:08106C007FC8AE071FEE70FA09
:011074002259
:0A10C800C2A0121066C2A202106C52
:0A10D200D2A0121066C2A202106C38
:10000E007F381210C87F0C1210C87F061210C87FDE
:04001E00010210C803
:060EF2008B3A8A3B893CAB
:100EF800EF7006ED2480FF8004ED24C0FF1210C8B7
:100F0800AB3AAA3BA93C12099F6013053CE53C702B
:0E0F180002053B14F912099FFF1210D280E26D
:010F260022A8
:080E66008F258D268A278B28B9
:100E6E00E4FBEBC39529503AE52570047F808002A0
:100E7E007FC0E5262F252914C39BFF1210C8AE276D
:100E8E00AF287C007D0A1209CAED2430FF1210D261
:100E9E00AE27AF287C007D0A1209CA8E278F280B39
:020EAE0080C002
:010EB000221F
:100822005B44454255475D20524157204255463A66
:1008320020000D0A002564202564005B44454255D2
:10084200475D20444143204F55542054454D503A72
:10085200200025750D0A005B44454255475D204442
:100862004143204F55542048554D493A20005B449E
:10087200454255475D20524157204652455120423C
:1008820055463A20002564005B44454255475D20A9
:10089200444143204F555420465245513A20004886
:1008A200414C462056414C55453A200020202020FC
:1008B200202020202020202020202020005B4445D2
:1008C2004255475D20554152545F496E69740D0A85
:1008D200005B44454255475D204C43445F496E6985
:1008E200740D0A005B44454255475D2054696D65AD
:1008F20072305F496E69740D0A005B444542554788
:100902005D20494E54305F496E69740D0A005B44A4
:10091200454255475D20496E697420446F6E650DEE
:100922000A005741495420434D44202020202020D2
:1009320000465245513A20202020202020487A00AB
:10094200465245513A25750D0A0054656D703A209C
:10095200202020430048756D693A20202020250080
:10096200543A257520483A25750D0A005B444542E4
:1009720055475D204448543131204641494C0D0AC7
:10098200004448543131204641494C0D0A00202090
:0D09920020202020202020202020202000D8
:100FD400C114010800C113010F00010E00C1120168
:0C0FE4000B00020C000002090000C19587
:0410F40000000022D6
:0F107500D291D2901210F4C2911210F4C29022B4
:0E109200C290C2911210F4D290D2910210F4CA
:030F9A00120F7CB7
:100F9D00E4FFD291D29030910C0FEFD394FA40F63A
:090FAD00C2907F0122C2907F0076
:010FB6002218
:100F7C00E4FEC290EF30E703D38001C39291EF25DA
:0D0F8C00E0FFD2901210F40EBE08E7C290F4
:010F99002235
:100FF100AD071210757F90120F9A7F40120F9AAFB2
:0A10010005120F7C120F9D021092E1
:0C10AE00E4FFE4FE0EBEFAFC0FBF14F6D7
:0110BA002213
:060C39008B3A8A3B893C66
:100C3F00E4F53DF53EF53FF5407BFF7A087922124A
:100C4F000F2DAB3AAA3BA93C120F2D120F27754659
:100C5F00FF754708754837754900754A00754B3D54
:100C6F00754C00754D00754E3FAB3AAA3BA93C122F
:100C7F000400AF3E120FF17BFF7A08793D120F2D62
:100C8F00754100853E427546FF7547087548548586
:100C9F00414985424A7B017A0079141200827B0117
:070CAF007A007914120F2DE9
:100CB6001210AEAF40120FF17BFF7A087959120F6E
:010CC6002D00
:100CC7007541008540427546FF754708754854854C
:100CD700414985424A7B017A00791C1200827B01D7
:070CE7007A00791C120F2DA9
:030CEE000210AE43
:060DF3008B3A8A3B893CAB
:100DF900E4F53DF53E7BFF7A087970120F2DAB3A89
:100E0900AA3BA93C120F2D120F277546FF754708FB
:100E1900754887754900754A00754B3DAB3AAA3B41
:100E2900A93C120400AF3E120FF17BFF7A08798AC0
:030E3900120F2D68
:100E3C00753F00853E407546FF75470875485485DB
:100E4C003F4985404A7B017A0079141200827B016C
:070E5C007A007914120F2D3A
:030E63000210AECC
:10101E00759850438920758DFD758BFDD28ED2AC9F
:03102E00D2AF221C
:101044005389F0438901758C3C758AB0D2A9D28C3E
:011054002279
:0E10A00053890F438950E4F58DF58BD28E22D3
:0310F800D2882279
:060F27007BFF7A0879341B
:100F2D008B438A448945AB43AA44A94512099F6066
:100F3D00160545E5457002054414F912099FF5990A
:080F4D003099FDC29980DF22FA
:03002300020B06C7
:100B0600C0E0C0F0C083C082C0D075D000C000C0B5
:100B160001C002C003C004C005C006C00720980378
:030B2600020C1EA0
:100B2900859939C298E539C394304007E539D3949A
:100B3900394005E539B4201EE50FC3940B40030283
:100B49000C1EAF0F050F74242FF582E43400F583D2
:100B5900E539F0020C1EE539640D6006E539640AD1
:100B6900704EE50FD394005003020C1E7424250F18
:100B7900F582E43400F583E4F07BFF7A0879A11269
:100B89000F2D7B017A007924120F2D120F27E50E04
:100B9900700B7B017A007924120C39800EE50EB4B2
:100BA90001097B017A007924120DF3750F00806524
:100BB900853908D213E508B45302D214E508B445BF
:100BC90002C214E508B44124750E00750C00750DB8
:100BD90000C2127BFF7A0879AEE4FDFF120EF27BA8
:100BE900FF7A0879AEE4FD7F01120EF2E50864424E
:100BF9007023750E01F50CF50DF50BC2127BFF7A0A
:100C09000879AEFDFF120EF27BFF7A0879AEE4FD9A
:050C19007F01120EF244
:100C1E00D007D006D005D004D003D002D001D0002A
:0B0C2E00D0D0D082D083D0F0D0E032D4
:03000B00020FB72A
:100FB700C0E0C0D0758C3C758AB0050BE50BC394B7
:0D0FC700144005750B00D212D0D0D0E032DE
:030003000210BB2D
:0D10BB00C0E0050DE50D7002050CD0E0321F
:100699007BFF7A0879BF120F2D12101E7BFF7A0893
:1006A90079D3120F2D12000E7BFF7A0879E6120F0B
:1006B9002D1210447BFF7A0879FC120F2D1210F8C5
:1006C900D2AF7BFF7A097910120F2D7BFF7A097956
:1006D90024E4FDFF120EF2301409E50EB40104D230
:1006E900A88002C2A82014030207FFE50E64017066
:1006F9003D3012E3C212C2AF850C09850D0AF50C13
:10070900F50DD2AF7BFF7A097933FDFF120EF27531
:100719002905AB0AAA097D06E4FF120E667546FF94
:10072900754709754842850949850A4A806BE50E6E
:1007390070A53012A2C212C2AFF528752900752A18
:1007490024FB7A007923120D7DEF705ED2AF7BFF17
:100759007A09794CFDFF120EF27BFF7A097957E489
:10076900FD7F01120EF2E523FB7A007529027D0651
:10077900E4FF120E66E524FB7A007529027D067FE7
:1007890001120E667546FF7547097548627549007D
:1007990085234A754B0085244C7B017A0079001228
:1007A90000827B017A0079008046D2AF7BFF7A090B
:1007B900796E120F2D7BFF7A09794CE4FDFF120E39
:1007C900F27BFF7A097957E4FD7F01120EF2752950
:1007D900027B637A007D06E4FF120E667529027BAF
:1007E900637A007D067F01120E667BFF7A097983A1
:1007F900120F2D0206E0E4F50CF50D7BFF7A09795D
:1008090024FDFF120EF27BFF7A097990E4FD7F0146
:09081900120EF21210840206E036
:100CFD00020699E493A3F8E493A34003F68001F26E
:100D0D0008DFF48029E493A3F85407240CC8C333F7
:100D1D00C4540F4420C8834004F456800146F6DFC6
:100D2D00E4800B0102040810204080900FD4E47E73
:100D3D00019360BCA3FF543F30E509541FFEE493BB
:100D4D00A360010ECF54C025E060A840B8E493A382
:100D5D00FAE493A3F8E493A3C8C582C8CAC583CAAD
:100D6D00F0A3C8C582C8CAC583CADFE9DEE780BE65
:010FF0000000
:10099F00BB010689828A83E0225002E722BBFE0256
:0909AF00E32289828A83E4932289
:1009B800BB010689828A83F0225002F722BBFE011E
:0209C800F32218
:1009CA00BC000BBE0029EF8DF084FFADF022E4CC11
:1009DA00F875F008EF2FFFEE33FEEC33FCEE9DECDA
:1009EA00984005FCEE9DFE0FD5F0E9E4CEFD22ED20
:1009FA00F8F5F0EE8420D21CFEADF075F008EF2F6A
:100A0A00FFED33FD4007985006D5F0F222C398FD5A
:050A1A000FD5F0EA22F7
:10002600E5522446F8E60552227843301002784617
:10003600E475F001120A9C02099F2009EB7F2ED27B
:10004600098018EF540F2490D43440D4FF300D0BA0
:10005600EF24BFB41A0050032461FFE55360021574
:10006600530556E5567002055530100D7843E47574
:10007600F001120A9CEF0209B8020F557403D21060
:100086008003E4C210F5528B438A448945E4F55354
:10009600F555F556E55360077F2012006180F5752A
:1000A60054FFC20AC209C20BC20CC20EC20FC21151
:1000B60012002FFF700D3010057F00120072AF5630
:1000C600AE5522B4255FC2D5C20D12002FFF24D033
:1000D600B40A00501A75F00A785330D50508B6FFF1
:1000E6000106C6A426F620D5047002D20C80D924B7
:1000F600CFB41A00EF5004C2E5D20D020272D20A42
:1001060080C6D20980C0D20B80BCD2D580BAD20EAE
:1001160080B47F20120061200B077401B5530040A4
:10012600F1120026FF12006102009AD211D20F804E
:1001360095120026FB120026FA120026F94A4B7089
:100146000679437A037BFF200B2EE553602A7E0057
:100156008E82758300120A1F60060EEE655470F0DB
:10016600C2D5EBC0E0EAC0E0E9C0E0EE1202B9D0C9
:10017600E0F9D0E0FAD0E0FB12099FFF60AAEBC0DD
:10018600E0EAC0E0E9C0E0120061D0E02401F9D065
:10019600E03400FAD0E0FBE5540460DCD554D980A5
:1001A600877BFF7A0279B5D20B809C791080027921
:1001B60008C20FC2118008D2D5790A8004790AC212
:1001C600D5E554047002F554E4FAFDFEFF1200264C
:1001D600FC7B08200A13120026FD7B1030090A1248
:1001E6000026FE120026FF7B20EC3382D592D550E6
:1001F60013C3E43009069FFFE49EFEE4200A039D34
:10020600FDE49CFCE4CBF8C20AEC700CCFCECDCC5E
:10021600E824F8F870F38017C3EF33FFEE33FEEDF2
:1002260033FDEC33FCEB33FB994002FB0FD8E9EBD3
:10023600300A05F8D0E0C448B20AC0E00AEC4D4ED8
:100246004F78207B0070C2EAB5540040BCC0E01273
:1002560002BBD0F0D0E0200A04C4C0E0C4B20AC099
:10026600F012004AD0F0D5F0EB02009A120ABC0157
:10027600375301B15801084C01044201B54F01BD85
:0F0286004401BD49011D4301C35501A74601A70E
:100295004501A747036350010C2D01102E01332B97
:1002A500011423013120034C2A00CC480000012B06
:1002B5003F3F3F00790AA2D5200C14300E09B91032
:1002C500020404B9080104A2D5200F02500104203C
:1002D5000B68920BB553005034C0E07F20300C19E9
:1002E5007F30A20B720F720E500F120312C20BC297
:1002F5000FC20EC2117F30800F300E03E9C0E0122D
:100305000061300E03D0E0F9D0E0B553CC300E17C4
:100315007F30B9100C1200617F58300D077F78804F
:1003250003B90803120061300B057F2D0200617FC0
:10033500202011F87F2B200FF322920B80CF286EFF
:10034500756C6C2900D20A120026300AF8C20A78A8
:100355005330D50108F60200CC2D50434958120000
:10036500262403B405004001E490035E9312005275
:0D037500743A120052D20C7553040201B10B
:10038200E558300C0104F823282446F8227843303B
:100392000C027846E475F001120A9C02099F60EC97
:1003A200C55C7002155B14C55C200C04FF0210EFE3
:1003B200784374FFF5F0020AACFF021031E5596090
:1003C20006D559037F0022200C0F121055EF60084A
:1003D200055CE55C7002055B227843120A93120900
:1003E2009FFF60E97843E475F001120A9C80DE12F7
:1003F20003C9EFC0E01203BBD0E040F380A0D20CEF
:100402008002C20C8B438A448945E4F55AF558F5BB
:100412005BF55C755900C20BC209C20AC20D120318
:100422008FFF7005AF5A7E0022B4253012038FFF72
:1004320024D0B40A00500C75F00AC559A42559F508
:100442005980E924CFB41A00EF5002C2E5020665D2
:10045200D20A80D8D20980D4D20D80D0EF1203BB49
:1004620050081203F1EF600E80A9EFC0E01203C939
:10047200D0E06F609EEF60741203A080A71203C9E0
:10048200EF6069E5597007055980031203C9EF60EF
:1004920014200D0E120382E475F001120A9CEF1271
:1004A20009B8D559E6200D040558055A80BA120339
:1004B200BFEFC0E01203BBD0E050041203A0E4FF80
:1004C200200D0E120382E475F001120A9CEF12094C
:1004D200B8EF70DA200D040558055A808BE5596093
:1004E2000205591203F11203BFEF70C6300C04E487
:1004F2001203A0E55A60030204267EFF7FFF22203A
:100502000D1174FFFCFDFEFF120382120A93120A00
:10051200790558020415D0E080D27900800A79105A
:10052200800679088002790AD20EE55960020559DF
:10053200E9C0E01203F1EF60DD1203C9BF2D04D25E
:100542000B8003BF2B091203F1EF60CA1203BFD065
:10055200E0B40A028033B40802802EBF3027700252
:100562007408C20EC0E01203BFD0E0BF780280035D
:10057200BF58160559D559028007D55904D20E80A5
:100582000B741080197002740ABF000AEFF8E4FCC1
:10059200FDFEFF020618C0E0EF1203A0D0E0F9E46E
:1005A200FCFDFEFFE9C0E0ECC0E0EDC0E0EEC0E023
:1005B200EFC0E01203BFEFF8D0E0FFD0E0FED0E0E2
:1005C200FDD0E0FCD0F0E8604DB461004007B47BA0
:1005D200005002C2E524D0503DFA24F6500724F917
:1005E2005034240AFAEAB5F000502BCFA9F0A42F18
:1005F200FF92D5E9C5F0CEA4A2D53EFE92D5E9C5BB
:10060200F0CDA4A2D53DFD92D5E9C5F0CCA4A2D5EA
:0B0612003CFCC20E808EE8C0E0200D12
:10061D002A200E08055A300B03120A6B12038212A0
:10062D000A93055820090B200A0DEE8FF0120A4C83
:10063D008009120A798004EF1209B8D0E01203A0E4
:10064D00020415200D10120382120A930558E55B62
:10065D00855CF0120A4C80E8120ABC04DF530520B9
:10066D005804564C045242042E4805244F05284484
:10067D00047F43051C49052855050146050145051F
:0C068D000147045A2A06504E0000045E8B
:100A1F00BB010CE58229F582E5833AF583E022508C
:100A2F0006E92582F8E622BBFE06E92582F8E222D6
:0D0A3F00E58229F582E5833AF583E49322F0
:100A4C00BB010A89828A83F0E5F0A3F0225006F7F5
:0F0A5C0009A7F01922BBFE06F3E5F009F31922F2
:0E0A6B00C3E49FFFE49EFEE49DFDE49CFC229C
:100A7900BB010789828A83020AEE5005E9F8020A56
:0A0A8900E2BBFE05E9F8020AFA22BA
:090A9300E6FB08E6FA08E6F92288
:100A9C00FAE6FB0808E6F925F0F618E6CA3AF6225B
:100AAC00FAE6FB0808E625F0F9F618E63AFAF6221B
:100ABC00D083D082F8E4937012740193700DA3A3C9
:100ACC0093F8740193F5828883E4737402936860DD
:060ADC00EFA3A3A380DFDD
:100F5500EFB40A07740D120F60740A309811A8993E
:100F6500B8130CC2983098FDA899C298B811F630FC
:070F750099FDC299F59922D4
:1010550010160B1210DCBF0D027F0A020F55AF15DB
:011065002268
:0510EF008F15D216224E
:10103100EFC394094005EF940E4003BF2003D38012
:0310410001C322C6
:0C0AE200ECF608EDF608EEF608EFF62240
:0C0AEE00ECF0A3EDF0A3EEF0A3EFF0227B
:0C0AFA00ECF208EDF208EEF208EFF22238
:0A10DC003098FDAF99C2987E002203
:00000001FF
