:03000000020FD814
:0C0FD800787FE4F6D8FD75814F02101FF1
:0412C4007F0ADFFEC0
:0112C8002203
:0812BB007F367EC7DEFEDFFC7A
:0112C3002208
:0D127E00007F087E017DF3DDFEDEFCDFFA5F
:01128B002240
:10123800D2B3C2B31212BBD2B320B3FD30B3FD2078
:03124800B3FD22D1
:10112500121238E4FDFCE4F9FBFA30B3FD1212C4E7
:1011350030B308753E0130B30580FBE4F53EE92583
:10114500E0453EF90BBB00010AEB64084A70DB740D
:10115500162DF8A6010DBD00010CED64054C70C6F9
:011165002267
:101064008B388A39893A121125AF17EF3395E0FE90
:10107400AD16ED3395E0FCED2FFFEC3EFEAD18ED23
:101084003395E0FCEF2DFFEE3CFEAD19ED3395E01A
:10109400FCEF2DFFEE3CFEAD1AED3395E0FCEFB511
:1010A400051DEEB50419AB3BAA3CA93DE516120F8C
:1010B4000EAB38AA39A93AE518120F0E7F0022ABFD
:1010C4003BAA3CA93D74FF120F0EAB38AA39A93ACA
:0610D400120F0E7F012245
:06126F00C2A18F80D2A293
:081275007FC8AE071FEE70FAFE
:01127D00224E
:0A12A700C2A012126FC2A20212755B
:0A12B100D2A012126FC2A202127541
:101224007F381212A77F0C1212A77F061212A77F13
:04123400010212A7FA
:061166008B4D8A4E894FFB
:10116C00EF7006ED2480FF8004ED24C0FF1212A75F
:10117C00AB4DAA4EA94F120EF56013054FE54F70FB
:0E118C0002054E14F9120EF5FF1212B180E2A8
:01119A002232
:0810DA008F388D398A3A8B3BF7
:1010E200E4FBEBC3953C503AE53870047F80800204
:1010F2007FC0E5392F253C14C39BFF1212A7AE3ADD
:10110200AF3B7C007D0A120F20ED2430FF1212B19A
:10111200AE3AAF3B7C007D0A120F208E3A8F3B0B1A
:0211220080C08B
:0111240022A8
:100DF40048414C462056414C55453A20000D0A00C6
:100E040020202020202020202020202020202020DE
:100E1400005B44454255475D20554152545F496E3D
:100E240069740D0A005B44454255475D204C4344B8
:100E34005F496E69740D0A005B44454255475D2065
:100E440054696D6572305F496E69740D0A005B44C4
:100E5400454255475D20494E54305F496E69740DD3
:100E64000A005B44454255475D20496E697420443D
:100E74006F6E650D0A005741495420434D442020AC
:100E84002020202000465245513A202020202020B6
:100E940020487A00465245513A25750D0A0054659A
:100EA4006D703A20202020430048756D693A202057
:100EB40020202500543A257520483A25750D0A004E
:100EC4005B44454255475D204448543131204641F6
:100ED400494C0D0A004448543131204641494C0DD7
:100EE4000A00202020202020202020202020202034
:010EF40000FD
:10120700C10B010800C10A011500010E00C1090147
:0C1217000B00020C000002090000C18C5A
:10124B00759850438920758DFD758BFDD28ED2AC70
:03125B00D2AF22ED
:10125E005389F0438901758C3C758AB0D2A9D28C22
:01126E00225D
:0E128C0053890F438950E4F58DF58BD28E22E5
:0312C900D28822A6
:10119B008B4D8A4E894FAB4DAA4EA94F120EF5605F
:1011AB0016054FE54F7002054E14F9120EF5F59921
:0811BB003099FDC29980DF228A
:03002300020CE5E7
:100CE500C0E0C0F0C083C082C0D075D000C000C0D5
:100CF50001C002C003C004C005C006C00720980398
:030D0500020DD903
:100D080085994CC298E54CC394304007E54CD39480
:100D1800394005E54CB42017E515C3940540030296
:100D28000DD9AF150515740F2FF8A64C020DD9E58E
:100D38004C640D6006E54C640A7031E515D39400E7
:100D48005003020DD9740F2515F876007BFF7A0D34
:100D580079F412119B7B007A00790F12119B7BFFAB
:100D68007A0E790112119B7515008065854C08D2A1
:100D78000AE508B45302D20BE508B44502C20BE5F4
:100D880008B44124750E00750C00750D00C2097B6E
:100D9800FF7A0E7904E4FDFF1211667BFF7A0E7963
:100DA80004E4FD7F01121166E50864427023750EA4
:100DB80001F50CF50DF50BC2097BFF7A0E7904FDE0
:100DC800FF1211667BFF7A0E7904E4FD7F01121190
:010DD80066B4
:100DD900D007D006D005D004D003D002D001D0006E
:0B0DE900D0D0D082D083D0F0D0E03218
:03000B000211EAF5
:1011EA00C0E0C0D0758C3C758AB0050BE50BC39482
:0D11FA00144005750B00D209D0D0D0E032B2
:0300030002129A4C
:0D129A00C0E0050DE50D7002050CD0E0323E
:100B5C007BFF7A0E791512119B12124B7BFF7A0ECA
:100B6C00792912119B1212247BFF7A0E793C1211F7
:100B7C009B12125E7BFF7A0E795212119B1212C9D4
:100B8C00D2AF7BFF7A0E796612119B7BFF7A0E79BE
:100B9C007AE4FDFF121166300B09E50EB40104D2A4
:100BAC00A88002C2A8200B03020CC2E50E640170DF
:100BBC003D3009E3C209C2AF850C09850D0AF50C5D
:100BCC00F50DD2AF7BFF7A0E7989FDFF1211667598
:100BDC003C05AB0AAA097D06E4FF1210DA753BFF4F
:100BEC00753C0E753D9885093E850A3F806BE50E78
:100BFC0070A53009A2C209C2AFF53B753C00753D2A
:100C0C0023FB7A007922121064EF705ED2AF7BFF67
:100C1C007A0E79A2FDFF1211667BFF7A0E79ADE494
:100C2C00FD7F01121166E522FB7A00753C027D0600
:100C3C00E4FF1210DAE523FB7A00753C027D067F97
:100C4C00011210DA753BFF753C0E753DB8753E0010
:100C5C0085223F7540008523417B007A0079241260
:100C6C00085C7B007A0079248046D2AF7BFF7A0E39
:100C7C0079C412119B7BFF7A0E79A2E4FDFF12114D
:100C8C00667BFF7A0E79ADE4FD7F01121166753C2F
:100C9C00027B637A007D06E4FF1210DA753C027B5E
:100CAC00637A007D067F011210DA7BFF7A0E79D908
:100CBC0012119B020BA3E4F50CF50D7BFF7A0E7958
:100CCC007AFDFF1211667BFF7A0E79E6E4FD7F0157
:090CDC0012116612127E020BA334
:100FE400020B5CE493A3F8E493A34003F68001F2BC
:100FF40008DFF48029E493A3F85407240CC8C3330E
:10100400C4540F4420C8834004F456800146F6DFDC
:10101400E4800B0102040810204080901207E47E53
:10102400019360BCA3FF543F30E509541FFEE493D1
:10103400A360010ECF54C025E060A840B8E493A398
:10104400FAE493A3F8E493A3C8C582C8CAC583CAC3
:10105400F0A3C8C582C8CAC583CADFE9DEE780BE7B
:0112230000CA
:100EF500BB010689828A83E0225002E722BBFE02FB
:090F0500E32289828A83E493222D
:100F0E00BB010689828A83F0225002F722BBFE01C2
:020F1E00F322BC
:100F2000BC000BBE0029EF8DF084FFADF022E4CCB5
:100F3000F875F008EF2FFFEE33FEEC33FCEE9DEC7E
:100F4000984005FCEE9DFE0FD5F0E9E4CEFD22EDC4
:100F5000F8F5F0EE8420D21CFEADF075F008EF2F0E
:100F6000FFED33FD4007985006D5F0F222C398FDFF
:050F70000FD5F0EA229C
:10080000E547243BF8E60547227838300702783B75
:10081000E475F001120FA2020EF52000EB7F2ED23C
:10082000008018EF540F2490D43440D4FF30040BD0
:10083000EF24BFB41A0050032461FFE5486002159D
:1008400048054BE54B7002054A30070D7838E475D2
:10085000F001120FA2EF020F0E0211C37403D207B0
:100860008003E4C207F5478B388A39893AE4F548B2
:10087000F54AF54BE54860077F2012083B80F57587
:1008800049FFC201C200C202C203C205C206C208B9
:10089000120809FF700D3007057F0012084CAF4B9E
:1008A000AE4A22B4255FC2D5C204120809FF24D083
:1008B000B40A00501A75F00A784830D50508B6FF1A
:1008C0000106C6A426F620D5047002D20380D924DE
:1008D000CFB41A00EF5004C2E5D204020A4CD20190
:1008E00080C6D20080C0D20280BCD2D580BAD205E8
:1008F00080B47F2012083B2002077401B5480040F5
:10090000F1120800FF12083B020874D208D20680D8
:1009100095120800FB120800FA120800F94A4B7001
:1009200006791D7A0B7BFF20022EE548602A7E00A7
:100930008E82758300120F7560060EEE654970F0A9
:10094000C2D5EBC0E0EAC0E0E9C0E0EE120A93D005
:10095000E0F9D0E0FAD0E0FB120EF5FF60AAEBC0A0
:10096000E0EAC0E0E9C0E012083BD0E02401F9D0A1
:10097000E03400FAD0E0FBE5490460DCD549D980D9
:10098000877BFF7A0A798FD202809C791080027966
:1009900008C206C2088008D2D5790A8004790AC242
:1009A000D5E549047002F549E4FAFDFEFF1208009E
:1009B000FC7B08200113120800FD7B1030000A1296
:1009C0000800FE120800FF7B20EC3382D592D55040
:1009D00013C3E43000069FFFE49EFEE42001039D64
:1009E000FDE49CFCE4CBF8C201EC700CCFCECDCC86
:1009F000E824F8F870F38017C3EF33FFEE33FEED11
:100A000033FDEC33FCEB33FB994002FB0FD8E9EBF1
:100A1000300105F8D0E0C448B201C0E00AEC4D4E08
:100A20004F78207B0070C2EAB5490040BCC0E0129C
:100A30000A95D0F0D0E0200104C4C0E0C4B201C0E7
:100A4000F0120824D0F0D5F0EB020874120FB209AE
:100A50001153098B5808E24C08DE42098F4F099761
:0F0A60004409974908F743099D550981460981C3
:100A6F00450981470B3D5008E62D08EA2E090D2B4D
:100A7F0008EE23090B200B262A08A64800000905BB
:100A8F003F3F3F00790AA2D5200314300509B91062
:100A9F00020404B9080104A2D52006025001042063
:100AAF0002689202B548005034C0E07F203003192D
:100ABF007F30A20272067205500F120AECC202C2F8
:100ACF0006C205C2087F30800F300503E9C0E0126F
:100ADF00083B300503D0E0F9D0E0B548CC3005171E
:100AEF007F30B9100C12083B7F583004077F788095
:100AFF0003B9080312083B3002057F2D02083B7F24
:100B0F00202008F87F2B2006F322920280CF286E38
:100B1F00756C6C2900D2011208003001F8C20178FF
:100B2F004830D50108F60208A62D5043495812083F
:100B3F00002403B405004001E4900B389312082CF5
:0D0B4F00743A12082CD20375480402098B79
:100F7500BB010CE58229F582E5833AF583E0225031
:100F850006E92582F8E622BBFE06E92582F8E2227B
:0D0F9500E58229F582E5833AF583E4932295
:100FA200FAE6FB0808E6F925F0F618E6CA3AF62250
:100FB200D083D082F8E4937012740193700DA3A3CE
:100FC20093F8740193F5828883E4737402936860E2
:060FD200EFA3A3A380DFE2
:1011C300EFB40A07740D1211CE740A309811A8995E
:1011D300B8130CC2983098FDA899C298B811F6308C
:0711E30099FDC299F5992264
:00000001FF
