:03000000020FD715
:0C0FD700787FE4F6D8FD75817802101ECA
:0412C3007F0ADFFEC1
:0112C7002204
:0812BA007F367EC7DEFEDFFC7B
:0112C2002209
:0D127D00007F087E017DF3DDFEDEFCDFFA60
:01128A002241
:10123700D290C2901212BAD2902090FD3090FD2029
:0312470090FD22F5
:10112400121237E4FDFCE4F9FBFA3090FD1212C30D
:10113400309008753E0130900580FBE4F53EE925CA
:10114400E0453EF90BBB00010AEB64084A70DB740E
:10115400082DF8A6010DBD00010CED64054C70C608
:011164002268
:101063008B388A39893A121124AF09EF3395E0FEA0
:10107300AD08ED3395E0FCED2FFFEC3EFEAD0AED40
:101083003395E0FCEF2DFFEE3CFEAD0BED3395E029
:10109300FCEF2DFFEE3CFEAD0CED3395E0FCEFB520
:1010A300051DEEB50419AB3BAA3CA93DE508120F9B
:1010B3000DAB38AA39A93AE50A120F0D7F0022AB0E
:1010C3003BAA3CA93D74FF120F0DAB38AA39A93ACC
:0610D300120F0D7F012247
:06126E00C2A18F80D2A294
:081274007FC8AE071FEE70FAFF
:01127C00224F
:0A12A600C2A012126EC2A20212745E
:0A12B000D2A012126EC2A202127444
:101223007F381212A67F0C1212A67F061212A67F17
:04123300010212A6FC
:061165008B4D8A4E894FFC
:10116B00EF7006ED2480FF8004ED24C0FF1212A661
:10117B00AB4DAA4EA94F120EF46013054FE54F70FD
:0E118B0002054E14F9120EF4FF1212B080E2AB
:011199002233
:0810D9008F388D398A3A8B3BF8
:1010E100E4FBEBC3953C503AE53870047F80800205
:1010F1007FC0E5392F253C14C39BFF1212A6AE3ADF
:10110100AF3B7C007D0A120F1FED2430FF1212B09D
:10111100AE3AAF3B7C007D0A120F1F8E3A8F3B0B1C
:0211210080C08C
:0111230022A9
:100DF30048414C462056414C55453A20000D0A00C7
:100E030020202020202020202020202020202020DF
:100E1300005B44454255475D20554152545F496E3E
:100E230069740D0A005B44454255475D204C4344B9
:100E33005F496E69740D0A005B44454255475D2066
:100E430054696D6572305F496E69740D0A005B44C5
:100E5300454255475D20494E54305F496E69740DD4
:100E63000A005B44454255475D20496E697420443E
:100E73006F6E650D0A005741495420434D442020AD
:100E83002020202000465245513A202020202020B7
:100E930020487A00465245513A25750D0A0054659B
:100EA3006D703A20202020430048756D693A202058
:100EB30020202500543A257520483A25750D0A004F
:100EC3005B44454255475D204448543131204641F7
:100ED300494C0D0A004448543131204641494C0DD8
:100EE3000A00202020202020202020202020202035
:010EF30000FE
:10120600C10B015000C10A017800016700C1090144
:0C12160064000265000002620000C18C50
:10124A00759850438920758DFD758BFDD28ED2AC71
:03125A00D2AF22EE
:10125D005389F0438901758C3C758AB0D2A9D28C23
:01126D00225E
:0E128B0053890F438950E4F58DF58BD28E22E6
:0312C800D28822A7
:10119A008B4D8A4E894FAB4DAA4EA94F120EF46061
:1011AA0016054FE54F7002054E14F9120EF4F59923
:0811BA003099FDC29980DF228B
:03002300020CE5E7
:100CE500C0E0C0F0C083C082C0D075D000C000C0D5
:100CF50001C002C003C004C005C006C00720980398
:030D0500020DD804
:100D080085994CC298E54CC394304007E54CD39480
:100D1800394005E54CB42016AF78057874682FF88B
:100D2800A64CE578C3940F5003020DD88038E54CE3
:100D3800640D6006E54C640A7031E578D394005080
:100D480003020DD874682578F876007BFF7A0D7950
:100D5800F312119A7B007A00796812119A7BFF7A54
:100D68000E790012119A7578008065854C50D20A68
:100D7800E550B45302D20BE550B44502C20BE5501E
:100D8800B44124756700756500756600C2097BFF6C
:100D98007A0E7903E4FDFF1211657BFF7A0E790361
:100DA800E4FD7F01121165E5506442702375670107
:100DB800F565F566F564C2097BFF7A0E7903FDFFD8
:100DC8001211657BFF7A0E7903E4FD7F011211652C
:100DD800D007D006D005D004D003D002D001D0006F
:0B0DE800D0D0D082D083D0F0D0E03219
:03000B000211E9F6
:1011E900C0E0C0D0758C3C758AB00564E564C394D1
:0D11F900144005756400D209D0D0D0E0325A
:030003000212994D
:0D129900C0E00566E56670020565D0E03234
:100B5C007BFF7A0E791412119A12124A7BFF7A0ECD
:100B6C00792812119A1212237BFF7A0E793B1211FB
:100B7C009A12125D7BFF7A0E795112119A1212C8D9
:100B8C00D2AF7BFF7A0E796512119A7BFF7A0E79C0
:100B9C0079E4FDFF121165300B09E567B40104D24D
:100BAC00A88002C2A8200B03020CC2E56764017086
:100BBC003D3009E3C209C2AF856562856663F565A0
:100BCC00F566D2AF7BFF7A0E7988FDFF1211657541
:100BDC003C05AB63AA627D06E4FF1210D9753BFF9E
:100BEC00753C0E753D9785623E85633F806BE5676E
:100BFC0070A53009A2C209C2AFF53B753C00753D2A
:100C0C0023FB7A007922121063EF705ED2AF7BFF68
:100C1C007A0E79A1FDFF1211657BFF7A0E79ACE497
:100C2C00FD7F01121165E522FB7A00753C027D0601
:100C3C00E4FF1210D9E523FB7A00753C027D067F98
:100C4C00011210D9753BFF753C0E753DB7753E0012
:100C5C0085223F7540008523417B007A0079241260
:100C6C00085C7B007A0079248046D2AF7BFF7A0E39
:100C7C0079C312119A7BFF7A0E79A1E4FDFF121150
:100C8C00657BFF7A0E79ACE4FD7F01121165753C32
:100C9C00027B637A007D06E4FF1210D9753C027B5F
:100CAC00637A007D067F011210D97BFF7A0E79D80A
:100CBC0012119A020BA3E4F565F5667BFF7A0E79A7
:100CCC0079FDFF1211657BFF7A0E79E5E4FD7F015A
:090CDC0012116512127D020BA336
:100FE300020B5CE493A3F8E493A34003F68001F2BD
:100FF30008DFF48029E493A3F85407240CC8C3330F
:10100300C4540F4420C8834004F456800146F6DFDD
:10101300E4800B0102040810204080901206E47E55
:10102300019360BCA3FF543F30E509541FFEE493D2
:10103300A360010ECF54C025E060A840B8E493A399
:10104300FAE493A3F8E493A3C8C582C8CAC583CAC4
:10105300F0A3C8C582C8CAC583CADFE9DEE780BE7C
:0112220000CB
:100EF400BB010689828A83E0225002E722BBFE02FC
:090F0400E32289828A83E493222E
:100F0D00BB010689828A83F0225002F722BBFE01C3
:020F1D00F322BD
:100F1F00BC000BBE0029EF8DF084FFADF022E4CCB6
:100F2F00F875F008EF2FFFEE33FEEC33FCEE9DEC7F
:100F3F00984005FCEE9DFE0FD5F0E9E4CEFD22EDC5
:100F4F00F8F5F0EE8420D21CFEADF075F008EF2F0F
:100F5F00FFED33FD4007985006D5F0F222C398FD00
:050F6F000FD5F0EA229D
:10080000E547243BF8E60547227838300702783B75
:10081000E475F001120FA1020EF42000EB7F2ED23E
:10082000008018EF540F2490D43440D4FF30040BD0
:10083000EF24BFB41A0050032461FFE5486002159D
:1008400048054BE54B7002054A30070D7838E475D2
:10085000F001120FA1EF020F0D0211C27403D207B3
:100860008003E4C207F5478B388A39893AE4F548B2
:10087000F54AF54BE54860077F2012083B80F57587
:1008800049FFC201C200C202C203C205C206C208B9
:10089000120809FF700D3007057F0012084CAF4B9E
:1008A000AE4A22B4255FC2D5C204120809FF24D083
:1008B000B40A00501A75F00A784830D50508B6FF1A
:1008C0000106C6A426F620D5047002D20380D924DE
:1008D000CFB41A00EF5004C2E5D204020A4CD20190
:1008E00080C6D20080C0D20280BCD2D580BAD205E8
:1008F00080B47F2012083B2002077401B5480040F5
:10090000F1120800FF12083B020874D208D20680D8
:1009100095120800FB120800FA120800F94A4B7001
:1009200006791D7A0B7BFF20022EE548602A7E00A7
:100930008E82758300120F7460060EEE654970F0AA
:10094000C2D5EBC0E0EAC0E0E9C0E0EE120A93D005
:10095000E0F9D0E0FAD0E0FB120EF4FF60AAEBC0A1
:10096000E0EAC0E0E9C0E012083BD0E02401F9D0A1
:10097000E03400FAD0E0FBE5490460DCD549D980D9
:10098000877BFF7A0A798FD202809C791080027966
:1009900008C206C2088008D2D5790A8004790AC242
:1009A000D5E549047002F549E4FAFDFEFF1208009E
:1009B000FC7B08200113120800FD7B1030000A1296
:1009C0000800FE120800FF7B20EC3382D592D55040
:1009D00013C3E43000069FFFE49EFEE42001039D64
:1009E000FDE49CFCE4CBF8C201EC700CCFCECDCC86
:1009F000E824F8F870F38017C3EF33FFEE33FEED11
:100A000033FDEC33FCEB33FB994002FB0FD8E9EBF1
:100A1000300105F8D0E0C448B201C0E00AEC4D4E08
:100A20004F78207B0070C2EAB5490040BCC0E0129C
:100A30000A95D0F0D0E0200104C4C0E0C4B201C0E7
:100A4000F0120824D0F0D5F0EB020874120FB109AF
:100A50001153098B5808E24C08DE42098F4F099761
:0F0A60004409974908F743099D550981460981C3
:100A6F00450981470B3D5008E62D08EA2E090D2B4D
:100A7F0008EE23090B200B262A08A64800000905BB
:100A8F003F3F3F00790AA2D5200314300509B91062
:100A9F00020404B9080104A2D52006025001042063
:100AAF0002689202B548005034C0E07F203003192D
:100ABF007F30A20272067205500F120AECC202C2F8
:100ACF0006C205C2087F30800F300503E9C0E0126F
:100ADF00083B300503D0E0F9D0E0B548CC3005171E
:100AEF007F30B9100C12083B7F583004077F788095
:100AFF0003B9080312083B3002057F2D02083B7F24
:100B0F00202008F87F2B2006F322920280CF286E38
:100B1F00756C6C2900D2011208003001F8C20178FF
:100B2F004830D50108F60208A62D5043495812083F
:100B3F00002403B405004001E4900B389312082CF5
:0D0B4F00743A12082CD20375480402098B79
:100F7400BB010CE58229F582E5833AF583E0225032
:100F840006E92582F8E622BBFE06E92582F8E2227C
:0D0F9400E58229F582E5833AF583E4932296
:100FA100FAE6FB0808E6F925F0F618E6CA3AF62251
:100FB100D083D082F8E4937012740193700DA3A3CF
:100FC10093F8740193F5828883E4737402936860E3
:060FD100EFA3A3A380DFE3
:1011C200EFB40A07740D1211CD740A309811A89960
:1011D200B8130CC2983098FDA899C298B811F6308D
:0711E20099FDC299F5992265
:00000001FF
