:03000000020DC529
:0C0DC500787FE4F6D8FD75815C020E0C0E
:040006007F0ADFFE90
:01000A0022D3
:0811E4007F367EC7DEFEDFFC52
:0111EC0022E0
:0D118F00007F087E017DF3DDFEDEFCDFFA4F
:01119C002230
:10111600D2B3C2B31211E4D2B320B3FD30B3FD2073
:03112600B3FD22F4
:100F8500121116E4FDFCE4F9FBFA30B3FD1200067C
:100F950030B308752B0130B30580FBE4F52BE9254B
:100FA500E0452BF90BBB00010AEB64084A70DB74C2
:100FB500102DF8A6010DBD00010CED64054C70C6A1
:010FC5002209
:100E51008B258A268927120F85AF11EF3395E0FE86
:100E6100AD10ED3395E0FCED2FFFEC3EFEAD12ED44
:100E71003395E0FCEF2DFFEE3CFEAD13ED3395E035
:100E8100FCEF2DFFEE3CFEAD14ED3395E0FCEFB52C
:100E9100051DEEB50419AB28AA29A92AE510120BE4
:100EA100BFAB25AA26A927E512120BBF7F0022ABF3
:100EB10028AA29A92A74FF120BBFAB25AA26A927A4
:060EC100120BBF7F0122AD
:06117100C2A18F80D2A292
:081177007FC8AE071FEE70FAFD
:01117F00224D
:0A11C600C2A0121171C2A20211773B
:0A11D000D2A0121171C2A202117721
:10000E007F381211C67F0C1211C67F061211C67FE1
:04001E00010211C604
:060FC6008B3A8A3B893CD6
:100FCC00EF7006ED2480FF8004ED24C0FF1211C6E3
:100FDC00AB3AAA3BA93C120BA66013053CE53C704E
:0E0FEC0002053B14F9120BA6FF1211D080E291
:010FFA0022D4
:080F3A008F258D268A278B28E4
:100F4200E4FBEBC39529503AE52570047F808002CB
:100F52007FC0E5262F252914C39BFF1211C6AE2799
:100F6200AF287C007D0A120BD1ED2430FF1211D084
:100F7200AE27AF287C007D0A120BD18E278F280B5B
:020F820080C02D
:010F8400224A
:100699005B44454255475D20524157204255463AF1
:1006A90020000D0A002564202564005B444542555D
:1006B900475D20444143204F55542054454D503AFD
:1006C900200025750D0A005B44454255475D2044CD
:1006D9004143204F55542048554D493A20005B4429
:1006E900454255475D2052415720465245512042C7
:1006F90055463A20002564005B44454255475D2034
:10070900444143204F555420465245513A20004810
:10071900414C462056414C55453A20002020202086
:100729002020202020202020202020200054454D5A
:1007390050455220414C41524D0D0A0048554D49F2
:1007490020414C41524D0D0A004652455120414C21
:1007590041524D0D0A0054454D504552204E4F52BD
:100769004D414C0D0A0048554D49204E4F524D41BF
:100779004C0D0A0046524551204E4F524D414C0DE9
:100789000A005B44454255475D20554152545F4933
:100799006E69740D0A005B44454255475D204C4320
:1007A900445F496E69740D0A005B44454255475DD3
:1007B9002054696D6572305F496E69740D0A005B7A
:1007C90044454255475D20494E54305F496E69742E
:1007D9000D0A005B44454255475D20496E69742006
:1007E900446F6E650D0A005741495420434D44201A
:1007F900202020202000465245513A202020202048
:100809002020487A00465245513A25750D0A005470
:10081900656D703A20202020430048756D693A20A3
:100829002020202500543A257520483A25750D0ABF
:10083900005B44454255475D2044485431312046C8
:1008490041494C0D0A004448543131204641494C34
:100859000D0A0020202020202020202020202020D8
:0208690020006D
:1010DF00C114010800C113010F00010E00C112015C
:0C10EF000B00020C000002090000C1957B
:0411F20000000022D7
:0F118000D291D2901211F2C2911211F2C29022AA
:0E119D00C290C2911211F2D290D2910211F2C0
:03109F00121079B3
:1010A200E4FFD291D2903091100FEFD394FA748072
:0D10B200948040F2C2907F0122C2907F0026
:0110BF00220E
:10107900E4FEEEC39408748094805017C290EF3058
:10108900E7028001C39291EF25E0FFD2901211F29D
:051099000E80DFC29093
:01109E00222F
:1010FC00AD071211807F9012109F7F4012109FAF8E
:0A110C00051210791210A202119DC5
:1010C000E4FFEFC39414748094805012E4FEEEC3E6
:0E10D00094FA7480948050030E80F30F80E435
:0110DE0022EF
:060D0D008B3A8A3B893C91
:100D1300E4F53DF53EF53FF5407BFF7A0679991200
:100D23001001AB3AAA3BA93C121001120FFB754606
:100D3300FF7547067548AE754900754A00754B3D0A
:100D4300754C00754D00754E3FAB3AAA3BA93C125A
:100D53000400AF3E1210FC7BFF7A0679B412100137
:100D6300754100853E427546FF7547067548CB853C
:100D7300414985424A7B017A0079141200827B0142
:070D83007A0079141210013F
:100D8A001210C0AF401210FC7BFF7A0679D0121005
:010D9A000157
:100D9B007541008540427546FF7547067548CB8502
:100DAB00414985424A7B017A00791C1200827B0102
:070DBB007A00791C121001FF
:030DC2000210C05C
:060EC7008B3A8A3B893CD6
:100ECD00E4F53DF53E7BFF7A0679E7121001AB3A6A
:100EDD00AA3BA93C121001120FFB7546FF75470680
:100EED007548FE754900754A00754B3DAB3AAA3BF6
:100EFD00A93C120400AF3E1210FC7BFF7A0779016A
:030F0D00121001BE
:100F1000753F00853E407546FF7547067548CB8591
:100F20003F4985404A7B017A0079141200827B0197
:070F30007A00791412100190
:030F37000210C0E5
:10112900759850438920758DFD758BFDD28ED2AC93
:03113900D2AF2210
:10114F005389F0438901758C3C758AB0D2A9D28C32
:01115F00226D
:0E11AB0053890F438950E4F58DF58BD28E22C7
:0311F600D288227A
:060FFB007BFF7A0679ABD2
:101001008B438A448945AB43AA44A945120BA66088
:10101100160545E5457002054414F9120BA6F5992C
:081021003099FDC29980DF2225
:0300230002086B65
:10086B00C0E0C0F0C083C082C0D075D000C000C053
:10087B0001C002C003C004C005C006C00720980316
:03088B000209FE61
:10088E00859939C298AF39EF3395E0FEC3EF9430B6
:10089E00EE64809480400BD3EF9439EE64809480A4
:1008AE004005E539B42022C3E50F940B7480948083
:1008BE0040030209FEAF0F050F74242FF582E434B6
:1008CE0000F583E539F00209FEE539640D6006E5B1
:1008DE0039640A7056D3E50F9400748094805003E7
:1008EE000209FE7424250FF582E43400F583E4F04A
:1008FE007BFF7A0779181210017B017A0079241296
:10090E001001120FFBAF0EEF700B7B017A007924F2
:10091E00120D0D8010AF0EEF640170097B017A008D
:10092E007924120EC7750F000209FE853908D213FD
:10093E00E508B45302D214E508B44502C214E50822
:10094E00B44124750E00750C00750D00C2127BFFAC
:10095E007A077925E4FDFF120FC67BFF7A0779250A
:10096E00E4FD7F01120FC6E50864427023750E0187
:10097E00F50CF50DF50BC2127BFF7A077925FDFFFD
:10098E00120FC67BFF7A077925E4FD7F01120FC691
:10099E00E508B4580BC2927BFF7A07793612100124
:1009AE00E508B4590BC2937BFF7A07794512100103
:1009BE00E508B45A0BC2947BFF7A077952121001E4
:1009CE00E508B4780BD2927BFF7A07795F1210019B
:1009DE00E508B4790BD2937BFF7A07796F12100179
:1009EE00E508B47A0BD2947BFF7A07797D12100159
:1009FE00D007D006D005D004D003D002D001D0004D
:0B0A0E00D0D0D082D083D0F0D0E032F6
:03000B00021029B7
:10102900C0E0C0D075D000C007758C3C758AB0058A
:101039000BAF0BC3EF9414748094804005750B00BB
:09104900D212D007D0D0D0E03261
:030003000211B92E
:0D11B900C0E0050DE50D7002050CD0E03220
:100A19007BFF7A07798B1210011211297BFF7A0764
:100A2900799F12100112000E7BFF7A0779B212101A
:100A39000112114F7BFF7A0779C81210011211F6C2
:100A4900D2AF7BFF7A0779DC1210017BFF7A077935
:100A5900F0E4FDFF120FC630140BAF0EEF64017006
:100A690004D2A88002C2A8201403020B83AF0EEFA0
:100A79006401703D3012E0C212C2AF850C09850DC8
:100A89000AF50CF50DD2AF7BFF7A0779FFFDFF124E
:100A99000FC6752905AB0AAA097D06E4FF120F3AAC
:100AA9007546FF75470875480E850949850A4A80C4
:100AB9006CAF0EEF70A130129EC212C2AFF528754D
:100AC9002900752A24FB7A007923120E51EF705EF2
:100AD900D2AF7BFF7A087918FDFF120FC67BFF7A28
:100AE900087923E4FD7F01120FC6E523FB7A00751F
:100AF90029027D06E4FF120F3AE524FB7A007529E5
:100B0900027D067F01120F3A7546FF754708754841
:100B19002E75490085234A754B0085244C7B017A43
:100B29000079001200827B017A0079008046D2AFF9
:100B39007BFF7A08793A1210017BFF7A087918E469
:100B4900FDFF120FC67BFF7A087923E4FD7F0112AE
:100B59000FC67529027B637A007D06E4FF120F3AFE
:100B69007529027B637A007D067F01120F3A7BFFAC
:100B79007A08794F121001020A60E4F50CF50D7B31
:100B8900FF7A0779F0FDFF120FC67BFF7A08795CBF
:0D0B9900E4FD7F01120FC612118F020A60E9
:100DD100020A19E493A3F8E493A34003F68001F215
:100DE10008DFF48029E493A3F85407240CC8C33323
:100DF100C4540F4420C8834004F456800146F6DFF2
:100E0100E4800B01020408102040809010DFE47E92
:100E1100019360BCA3FF543F30E509541FFEE493E6
:100E2100A360010ECF54C025E060A840B8E493A3AD
:100E3100FAE493A3F8E493A3C8C582C8CAC583CAD8
:100E4100F0A3C8C582C8CAC583CADFE9DEE780BE90
:0110FB0000F4
:100BA600BB010689828A83E0225002E722BBFE024D
:090BB600E32289828A83E4932280
:100BBF00BB010689828A83F0225002F722BBFE0115
:020BCF00F3220F
:100BD100BC000BBE0029EF8DF084FFADF022E4CC08
:100BE100F875F008EF2FFFEE33FEEC33FCEE9DECD1
:100BF100984005FCEE9DFE0FD5F0E9E4CEFD22ED17
:100C0100F8F5F0EE8420D21CFEADF075F008EF2F60
:100C1100FFED33FD4007985006D5F0F222C398FD51
:050C21000FD5F0EA22EE
:10002600E5522446F8E60552227843301002784617
:10003600E475F001120CA3020BA62009EB7F2ED269
:10004600098018EF540F2490D43440D4FF300D0BA0
:10005600EF24BFB41A0050032461FFE55360021574
:10006600530556E5567002055530100D7843E47574
:10007600F001120CA3EF020BBF0210527403D21050
:100086008003E4C210F5528B438A448945E4F55354
:10009600F555F556E55360077F2012006180F5752A
:1000A60054FFC20AC209C20BC20CC20EC20FC21151
:1000B60012002FFF700D3010057F00120072AF5630
:1000C600AE5522B4255FC2D5C20D12002FFF24D033
:1000D600B40A00501A75F00A785330D50508B6FFF1
:1000E6000106C6A426F620D5047002D20C80D924B7
:1000F600CFB41A00EF5004C2E5D20D020272D20A42
:1001060080C6D20980C0D20B80BCD2D580BAD20EAE
:1001160080B47F20120061200B077401B5530040A4
:10012600F1120026FF12006102009AD211D20F804E
:1001360095120026FB120026FA120026F94A4B7089
:100146000679437A037BFF200B2EE553602A7E0057
:100156008E82758300120C2660060EEE655470F0D2
:10016600C2D5EBC0E0EAC0E0E9C0E0EE1202B9D0C9
:10017600E0F9D0E0FAD0E0FB120BA6FF60AAEBC0D4
:10018600E0EAC0E0E9C0E0120061D0E02401F9D065
:10019600E03400FAD0E0FBE5540460DCD554D980A5
:1001A600877BFF7A0279B5D20B809C791080027921
:1001B60008C20FC2118008D2D5790A8004790AC212
:1001C600D5E554047002F554E4FAFDFEFF1200264C
:1001D600FC7B08200A13120026FD7B1030090A1248
:1001E6000026FE120026FF7B20EC3382D592D550E6
:1001F60013C3E43009069FFFE49EFEE4200A039D34
:10020600FDE49CFCE4CBF8C20AEC700CCFCECDCC5E
:10021600E824F8F870F38017C3EF33FFEE33FEEDF2
:1002260033FDEC33FCEB33FB994002FB0FD8E9EBD3
:10023600300A05F8D0E0C448B20AC0E00AEC4D4ED8
:100246004F78207B0070C2EAB5540040BCC0E01273
:1002560002BBD0F0D0E0200A04C4C0E0C4B20AC099
:10026600F012004AD0F0D5F0EB02009A120CC3014E
:10027600375301B15801084C01044201B54F01BD85
:0F0286004401BD49011D4301C35501A74601A70E
:100295004501A747036350010C2D01102E01332B97
:1002A500011423013120034C2A00CC480000012B06
:1002B5003F3F3F00790AA2D5200C14300E09B91032
:1002C500020404B9080104A2D5200F02500104203C
:1002D5000B68920BB553005034C0E07F20300C19E9
:1002E5007F30A20B720F720E500F120312C20BC297
:1002F5000FC20EC2117F30800F300E03E9C0E0122D
:100305000061300E03D0E0F9D0E0B553CC300E17C4
:100315007F30B9100C1200617F58300D077F78804F
:1003250003B90803120061300B057F2D0200617FC0
:10033500202011F87F2B200FF322920B80CF286EFF
:10034500756C6C2900D20A120026300AF8C20A78A8
:100355005330D50108F60200CC2D50434958120000
:10036500262403B405004001E490035E9312005275
:0D037500743A120052D20C7553040201B10B
:10038200E558300C0104F823282446F8227843303B
:100392000C027846E475F001120CA3020BA660EC85
:1003A200C55C7002155B14C55C200C04FF0211EDE4
:1003B200784374FFF5F0020CB3FF02113CE559607B
:1003C20006D559037F0022200C0F121160EF60083E
:1003D200055CE55C7002055B227843120C9A120BF5
:1003E200A6FF60E97843E475F001120CA380DE12E7
:1003F20003C9EFC0E01203BBD0E040F380A0D20CEF
:100402008002C20C8B438A448945E4F55AF558F5BB
:100412005BF55C755900C20BC209C20AC20D120318
:100422008FFF7005AF5A7E0022B4253012038FFF72
:1004320024D0B40A00500C75F00AC559A42559F508
:100442005980E924CFB41A00EF5002C2E5020665D2
:10045200D20A80D8D20980D4D20D80D0EF1203BB49
:1004620050081203F1EF600E80A9EFC0E01203C939
:10047200D0E06F609EEF60741203A080A71203C9E0
:10048200EF6069E5597007055980031203C9EF60EF
:1004920014200D0E120382E475F001120CA3EF1268
:1004A2000BBFD559E6200D040558055A80BA120330
:1004B200BFEFC0E01203BBD0E050041203A0E4FF80
:1004C200200D0E120382E475F001120CA3EF120B41
:1004D200BFEF70DA200D040558055A808BE559608C
:1004E2000205591203F11203BFEF70C6300C04E487
:1004F2001203A0E55A60030204267EFF7FFF22203A
:100502000D1174FFFCFDFEFF120382120C9A120CF5
:10051200800558020415D0E080D27900800A791053
:10052200800679088002790AD20EE55960020559DF
:10053200E9C0E01203F1EF60DD1203C9BF2D04D25E
:100542000B8003BF2B091203F1EF60CA1203BFD065
:10055200E0B40A028033B40802802EBF3027700252
:100562007408C20EC0E01203BFD0E0BF780280035D
:10057200BF58160559D559028007D55904D20E80A5
:100582000B741080197002740ABF000AEFF8E4FCC1
:10059200FDFEFF020618C0E0EF1203A0D0E0F9E46E
:1005A200FCFDFEFFE9C0E0ECC0E0EDC0E0EEC0E023
:1005B200EFC0E01203BFEFF8D0E0FFD0E0FED0E0E2
:1005C200FDD0E0FCD0F0E8604DB461004007B47BA0
:1005D200005002C2E524D0503DFA24F6500724F917
:1005E2005034240AFAEAB5F000502BCFA9F0A42F18
:1005F200FF92D5E9C5F0CEA4A2D53EFE92D5E9C5BB
:10060200F0CDA4A2D53DFD92D5E9C5F0CCA4A2D5EA
:0B0612003CFCC20E808EE8C0E0200D12
:10061D002A200E08055A300B03120C721203821297
:10062D000C9A055820090B200A0DEE8FF0120C5371
:10063D008009120C808004EF120BBFD0E01203A0D2
:10064D00020415200D10120382120C9A0558E55B59
:10065D00855CF0120C5380E8120CC304DF530520A7
:10066D005804564C045242042E4805244F05284484
:10067D00047F43051C49052855050146050145051F
:0C068D000147045A2A06504E0000045E8B
:100C2600BB010CE58229F582E5833AF583E0225083
:100C360006E92582F8E622BBFE06E92582F8E222CD
:0D0C4600E58229F582E5833AF583E49322E7
:100C5300BB010A89828A83F0E5F0A3F0225006F7EC
:0F0C630009A7F01922BBFE06F3E5F009F31922E9
:0E0C7200C3E49FFFE49EFEE49DFDE49CFC2293
:100C8000BB010789828A83020CF55005E9F8020C42
:0A0C9000E9BBFE05E9F8020D0122A0
:090C9A00E6FB08E6FA08E6F9227F
:100CA300FAE6FB0808E6F925F0F618E6CA3AF62252
:100CB300FAE6FB0808E625F0F9F618E63AFAF62212
:100CC300D083D082F8E4937012740193700DA3A3C0
:100CD30093F8740193F5828883E4737402936860D4
:060CE300EFA3A3A380DFD4
:10105200EFB40A07740D12105D740A309811A89942
:10106200B8130CC2983098FDA899C298B811F630FE
:0710720099FDC299F59922D6
:1011600010160B1211DABF0D027F0A021052AF15D2
:01117000225C
:0511ED008F15D216224F
:10113C00EFC394094005EF940E4003BF2003D38006
:03114C0001C322BA
:0C0CE900ECF608EDF608EEF608EFF62237
:0C0CF500ECF0A3EDF0A3EEF0A3EFF02272
:0C0D0100ECF208EDF208EEF208EFF2222E
:0A11DA003098FDAF99C2987E002204
:00000001FF
