:03000000020FA745
:0C0FA700787FE4F6D8FD758171020FEE32
:041284007F0ADFFE00
:011288002243
:08127B007F367EC7DEFEDFFCBA
:011283002248
:0D124B00007F087E017DF3DDFEDEFCDFFA92
:011258002273
:10120500D290C29012127BD2902090FD3090FD209A
:0312150090FD2227
:1010F400121205E4FDFCE4F9FBFA3090FD121284AF
:1011040030900875480130900580FBE4F548E925E6
:10111400E04548F90BBB00010AEB64084A70DB7434
:10112400082DF8A6010DBD00010CED64054C70C638
:011134002298
:101033008B428A4389441210F4AF09EF3395E0FEE3
:10104300AD08ED3395E0FCED2FFFEC3EFEAD0AED70
:101053003395E0FCEF2DFFEE3CFEAD0BED3395E059
:10106300FCEF2DFFEE3CFEAD0CED3395E0FCEFB550
:10107300051DEEB50419AB45AA46A947E508120DAF
:101083003DAB42AA43A944E50A120D3D7F0022ABC2
:1010930045AA46A94774FF120D3DAB42AA43A94492
:0610A300120D3D7F012249
:06123C00C2A18F80D2A2C6
:081242007FC8AE071FEE70FA31
:01124A002281
:0A126700C2A012123CC2A202124201
:0A127100D2A012123CC2A2021242E7
:1011F1007F381212677F0C1212677F061212677F07
:04120100010212676D
:061135008B568A57895811
:10113B00EF7006ED2480FF8004ED24C0FF121267D0
:10114B00AB56AA57A958120D2460130558E55870D1
:0E115B0002055714F9120D24FF12127180E2E2
:011169002263
:0810A9008F428D438A448B4500
:1010B100E4FBEBC39546503AE54270047F80800221
:1010C1007FC0E5432F254614C39BFF121267AE4430
:1010D100AF457C007D0A120D61ED2430FF121271C3
:1010E100AE44AF457C007D0A120D618E448F450BE5
:0210F10080C0BD
:0110F30022DA
:100E2A0020202020202020202020202020202020B8
:100E3A00005B44454255475D20554152545F496E17
:100E4A0069740D0A005B44454255475D204C434492
:100E5A005F496E69740D0A005B44454255475D203F
:100E6A0054696D6572305F496E69740D0A005B449E
:100E7A00454255475D20496E697420446F6E650D81
:100E8A000A005741495420434D4420202020202065
:100E9A0000465245513A20202020202020487A003E
:100EAA00465245513A25750D0A0054656D703A202F
:100EBA00202020430048756D693A20202020250013
:100ECA00543A257520483A25750D0A005B44454277
:100EDA0055475D204448543131204641494C0D0A5A
:100EEA00004448543131204641494C0D0A00202023
:0D0EFA00202020202020202020202020006B
:1011D600C10C015A00C10B017100C10A016E000267
:0A11E6006F0000026C00000159FFC9
:10121800759850438920758DFD758BFDD28ED2ACA3
:03122800D2AF2220
:10122B005389F0438901758C3C758AB0D2A9D28C55
:01123B002290
:0E12590053890F438950E4F58DF58BD28E2218
:03128900D28822E6
:10116A008B428A438944AB42AA43A944120D2460A4
:10117A00160544E5447002054314F9120D24F59945
:08118A003099FDC29980DF22BB
:03002300020F07C2
:100F0700C0E0C0F0C083C082C0D075D000C000C0B0
:100F170001C002C003C004C005C006C00730986501
:100F270085995AD20BC298E55AB45302D20CE55AA6
:100F3700B44502C20CE55AB4411C7571007BFF7AB7
:100F47000E792AE4FDFF1211357BFF7A0E792AE428
:100F5700FD7F01121135E55AB4421C7571017BFF03
:100F67007A0E792AE4FDFF1211357BFF7A0E792A72
:100F7700E4FD7F01121135300C09E571B40104D28B
:100F8700A88002C2A8D007D006D005D004D003D0CD
:100F970002D001D000D0D0D082D083D0F0D0E032C0
:03000B000211B926
:1011B900C0E0C0D0758C3C758AB0056EE56EC394ED
:0D11C900024005756E00D20AD0D0D0E03291
:100B5C00E4F53AF53B7BFF7A0E793B12116A1212DF
:100B6C00187BFF7A0E794F12116A1211F17BFF7A02
:100B7C000E796212116A12122BD2AFC2A87BFF7AC5
:100B8C000E797812116A7BFF7A0E798CE4FDFF12D4
:100B9C001135200C03020D05E57164016003020C94
:100BAC003A300AEEC20AF53CF53DA2B29200F5418C
:100BBC00F540F53FF53EE47F307E75FDFCAB41AA78
:100BCC0040A93FA83EC3120DB6502930000B20B2ED
:100BDC0008053DE53D7002053CA2B29200E54124BA
:100BEC0001F541E43540F540E4353FF53FE4353E51
:100BFC00F53E80C2AE3CAF3D7C007D0A120D4F8E9F
:100C0C003A8F3B7BFF7A0E799BE4FDFF1211357511
:100C1C004605AB3BAA3A7D06E4FF1210A97545FFC9
:100C2C0075460E7547AA853A48853B49806EE57135
:100C3C006003020B9E12124BC2AF75450075460045
:100C4C007547237B007A007922121033EF705ED245
:100C5C00AF7BFF7A0E79B4FDFF1211357BFF7A0E54
:100C6C0079BFE4FD7F01121135E522FB7A00754650
:100C7C00027D06E4FF1210A9E523FB7A00754602FB
:100C8C007D067F011210A97545FF75460E7547CA82
:100C9C00754800852249754A0085234B7B007A00F4
:100CAC00792412085C7B007A0079248046D2AF7BD1
:100CBC00FF7A0E79D612116A7BFF7A0E79B4E4FDB5
:100CCC00FF1211357BFF7A0E79BFE4FD7F01121103
:100CDC00357546027B637A007D06E4FF1210A97518
:100CEC0046027B637A007D067F011210A97BFF7A96
:100CFC000E79EB12116A020B9E7BFF7A0E798CE453
:100D0C00FDFF1211357BFF7A0E79F8E4FD7F01129D
:080D1C00113512124B020B9E6F
:100FB300020B5CE493A3F8E493A34003F68001F2ED
:100FC30008DFF48029E493A3F85407240CC8C3333F
:100FD300C4540F4420C8834004F456800146F6DF0E
:100FE300E4800B01020408102040809011D6E47EB7
:100FF300019360BCA3FF543F30E509541FFEE49303
:10100300A360010ECF54C025E060A840B8E493A3C9
:10101300FAE493A3F8E493A3C8C582C8CAC583CAF4
:10102300F0A3C8C582C8CAC583CADFE9DEE780BEAC
:0111F00000FE
:100D2400BB010689828A83E0225002E722BBFE02CD
:090D3400E32289828A83E4932200
:100D3D00BB010689828A83F0225002F722BBFE0195
:020D4D00F3228F
:100D4F00EF8DF0A4A8F0CF8CF0A428CE8DF0A42EB8
:020D5F00FE2272
:100D6100BC000BBE0029EF8DF084FFADF022E4CC76
:100D7100F875F008EF2FFFEE33FEEC33FCEE9DEC3F
:100D8100984005FCEE9DFE0FD5F0E9E4CEFD22ED85
:100D9100F8F5F0EE8420D21CFEADF075F008EF2FCF
:100DA100FFED33FD4007985006D5F0F222C398FDC0
:050DB1000FD5F0EA225D
:100DB600EB9FF5F0EA9E42F0E99D42F0E89C45F093
:010DC600220A
:10080000E5512445F8E60551227842300802784542
:10081000E475F001120DF4020D242001EB7F2ED2BD
:10082000018018EF540F2490D43440D4FF30050BCE
:10083000EF24BFB41A0050032461FFE55260021593
:10084000520555E5557002055430080D7842E4759F
:10085000F001120DF4EF020D3D0211927403D20863
:100860008003E4C208F5518B428A438944E4F5527F
:10087000F554F555E55260077F2012083B80F57569
:1008800053FFC202C201C203C204C206C207C209A8
:10089000120809FF700D3008057F0012084CAF5593
:1008A000AE5422B4255FC2D5C205120809FF24D078
:1008B000B40A00501A75F00A785230D50508B6FF10
:1008C0000106C6A426F620D5047002D20480D924DD
:1008D000CFB41A00EF5004C2E5D205020A4CD2028E
:1008E00080C6D20180C0D20380BCD2D580BAD206E5
:1008F00080B47F2012083B2003077401B5520040EA
:10090000F1120800FF12083B020874D209D20780D6
:1009100095120800FB120800FA120800F94A4B7001
:1009200006791D7A0B7BFF20032EE552602A7E009C
:100930008E82758300120DC760060EEE655370F04F
:10094000C2D5EBC0E0EAC0E0E9C0E0EE120A93D005
:10095000E0F9D0E0FAD0E0FB120D24FF60AAEBC072
:10096000E0EAC0E0E9C0E012083BD0E02401F9D0A1
:10097000E03400FAD0E0FBE5530460DCD553D980C5
:10098000877BFF7A0A798FD203809C791080027965
:1009900008C207C2098008D2D5790A8004790AC240
:1009A000D5E553047002F553E4FAFDFEFF1208008A
:1009B000FC7B08200213120800FD7B1030010A1294
:1009C0000800FE120800FF7B20EC3382D592D55040
:1009D00013C3E43001069FFFE49EFEE42002039D62
:1009E000FDE49CFCE4CBF8C202EC700CCFCECDCC85
:1009F000E824F8F870F38017C3EF33FFEE33FEED11
:100A000033FDEC33FCEB33FB994002FB0FD8E9EBF1
:100A1000300205F8D0E0C448B202C0E00AEC4D4E06
:100A20004F78207B0070C2EAB5530040BCC0E01292
:100A30000A95D0F0D0E0200204C4C0E0C4B202C0E5
:100A4000F0120824D0F0D5F0EB020874120E04095D
:100A50001153098B5808E24C08DE42098F4F099761
:0F0A60004409974908F743099D550981460981C3
:100A6F00450981470B3D5008E62D08EA2E090D2B4D
:100A7F0008EE23090B200B262A08A64800000905BB
:100A8F003F3F3F00790AA2D5200414300609B91060
:100A9F00020404B9080104A2D52007025001042062
:100AAF0003689203B552005034C0E07F2030041920
:100ABF007F30A20372077206500F120AECC203C2F4
:100ACF0007C206C2097F30800F300603E9C0E0126B
:100ADF00083B300603D0E0F9D0E0B552CC30061712
:100AEF007F30B9100C12083B7F583005077F788094
:100AFF0003B9080312083B3003057F2D02083B7F23
:100B0F00202009F87F2B2007F322920380CF286E35
:100B1F00756C6C2900D2021208003002F8C20278FC
:100B2F005230D50108F60208A62D50434958120835
:100B3F00002403B405004001E4900B389312082CF5
:0D0B4F00743A12082CD20475520402098B6E
:100DC700BB010CE58229F582E5833AF583E02250E1
:100DD70006E92582F8E622BBFE06E92582F8E2222B
:0D0DE700E58229F582E5833AF583E4932245
:100DF400FAE6FB0808E6F925F0F618E6CA3AF62200
:100E0400D083D082F8E4937012740193700DA3A37D
:100E140093F8740193F5828883E473740293686091
:060E2400EFA3A3A380DF91
:10119200EFB40A07740D12119D740A309811A899C0
:1011A200B8130CC2983098FDA899C298B811F630BD
:0711B20099FDC299F5992295
:00000001FF
