:03000000020DA24C
:0C0DA200787FE4F6D8FD75814B020DE966
:04103B007F0ADFFE4B
:01103F00228E
:08102A007F367EC7DEFEDFFC0D
:01103200229B
:0D100800007F087E017DF3DDFEDEFCDFFAD7
:0110150022B8
:100FD300D290C29012102AD2902090FD3090FD2022
:030FE30090FD225C
:100EA400120FD3E4FDFCE4F9FBFA3090FD12103B81
:100EB400309008753E0130900580FBE4F53EE9254D
:100EC400E0453EF90BBB00010AEB64084A70DB7491
:100ED4001A2DF8A6010DBD00010CED64054C70C679
:010EE40022EB
:100E2E008B388A39893A120EA4AF1BEF3395E0FE48
:100E3E00AD1AED3395E0FCED2FFFEC3EFEAD1CED53
:100E4E003395E0FCEF2DFFEE3CFEAD1DED3395E04E
:100E5E00FCEF2DFFEE3CFEAD1EED3395E0FCEFB545
:100E6E00051DEEB50419AB3BAA3CA93DE51A120DC2
:100E7E002DAB38AA39A93AE51C120D2D7F0022ABF5
:100E8E003BAA3CA93D74FF120D2DAB38AA39A93AE5
:060E9E00120D2D7F012260
:060FF900C2A18F80D2A20C
:080FFF007FC8AE071FEE70FA77
:0110070022C6
:0A101600C2A0120FF9C2A2020FFFE0
:0A102000D2A0120FF9C2A2020FFFC6
:100FBF007F381210167F0C1210167F061210167F34
:040FCF0001021016F5
:060EE5008B388A39893ABE
:100EEB00EF7006ED2480FF8004ED24C0FF12101676
:100EFB00AB38AA39A93A120D146013053AE53A70CA
:0E0F0B0002053914F9120D14FF12102080E2B5
:010F190022B5
:020F1A00AC0722
:100F1C00E4FAEAC3953B502AEC70047F8080027F90
:100F2C00C0EF2D253B14C39AFF121016EB75F00A77
:100F3C0084E5F02430FF121020EB75F00A84FB0AD4
:020F4C0080D053
:010F4E002280
:100C6E00496E6974204F4B0D0A0054656D703A2021
:100C7E00202020430048756D693A20202020250051
:100C8E005761697420666F7220636F6C6C65637454
:100C9E005F666C61672E2E2E0D0A0052583A253073
:100CAE003258202563202020202020200052583A40
:100CBE0020000D0A00436F6C6C656374696E672EBD
:100CCE002E2E0D0A004265666F726520444854311F
:100CDE00310D0A004448543131204F4B0D0A005457
:100CEE003A257520483A25750D0A0044485431318D
:100CFE00204641494C0D0A004166746572204448F5
:060D0E005431310D0A0012
:07103300C10A010800C10918
:100FE600759850438920758DFD758BFDD28ED2ACD8
:030FF600D2AF2255
:100F4F008B388A39893AAB38AA39A93A120D14600D
:100F5F0016053AE53A7002053914F9120D14F59990
:080F6F003099FDC29980DF22D8
:03002300020F9E2B
:100F9E00C0E0C0D0309815859908D209C298E508EE
:100FAE00B45302D20AE508B44502C20AD0D0D0E04A
:010FBE003200
:100B5C00120FE6120FBF7BFF7A0C796E120F4F1239
:100B6C0010081210087BFF7A0C7978E4FDFF120E46
:100B7C00E57BFF7A0C7983E4FD7F01120EE57BFFA8
:100B8C007A0C798E120F4F300935753BFF753C0C82
:100B9C00753DA985083E85083F7B007A00790912CE
:100BAC00085C7BFF7A0C79BB120F4F7B007A0079C3
:100BBC0009120F4F7BFF7A0C79C0120F4FC209300C
:100BCC000AC57BFF7A0C79C3120F4F7BFF7A0C7925
:100BDC00D3120F4F121008753B00753C00753D2366
:100BEC007B007A007922120E2EEF7046753B02AB19
:100BFC00227D06FF120F1A753B02AB237D067F0187
:100C0C00120F1A7BFF7A0C79E2120F4F753BFF75AE
:100C1C003C0C753DED753E0085223F7540008523EB
:100C2C00417B007A00792412085C7B007A007924DD
:100C3C00801E753B027B637D06E4FF120F1A753B29
:100C4C00027B637D067F01120F1A7BFF7A0C79F908
:100C5C00120F4F7BFF7A0D7906120F4F12100802FC
:020C6C000B93E8
:100DAE00020B5CE493A3F8E493A34003F68001F2F4
:100DBE0008DFF48029E493A3F85407240CC8C33346
:100DCE00C4540F4420C8834004F456800146F6DF15
:100DDE00E4800B0102040810204080901033E47E62
:100DEE00019360BCA3FF543F30E509541FFEE4930A
:100DFE00A360010ECF54C025E060A840B8E493A3D1
:100E0E00FAE493A3F8E493A3C8C582C8CAC583CAFB
:100E1E00F0A3C8C582C8CAC583CADFE9DEE780BEB3
:01103A0000B5
:100D1400BB010689828A83E0225002E722BBFE02DD
:090D2400E32289828A83E4932210
:100D2D00BB010689828A83F0225002F722BBFE01A5
:020D3D00F3229F
:10080000E547243BF8E60547227838300702783B75
:10081000E475F001120D6C020D142000EB7F2ED256
:10082000008018EF540F2490D43440D4FF30040BD0
:10083000EF24BFB41A0050032461FFE5486002159D
:1008400048054BE54B7002054A30070D7838E475D2
:10085000F001120D6CEF020D2D020F777403D20719
:100860008003E4C207F5478B388A39893AE4F548B2
:10087000F54AF54BE54860077F2012083B80F57587
:1008800049FFC201C200C202C203C205C206C208B9
:10089000120809FF700D3007057F0012084CAF4B9E
:1008A000AE4A22B4255FC2D5C204120809FF24D083
:1008B000B40A00501A75F00A784830D50508B6FF1A
:1008C0000106C6A426F620D5047002D20380D924DE
:1008D000CFB41A00EF5004C2E5D204020A4CD20190
:1008E00080C6D20080C0D20280BCD2D580BAD205E8
:1008F00080B47F2012083B2002077401B5480040F5
:10090000F1120800FF12083B020874D208D20680D8
:1009100095120800FB120800FA120800F94A4B7001
:1009200006791D7A0B7BFF20022EE548602A7E00A7
:100930008E82758300120D3F60060EEE654970F0E1
:10094000C2D5EBC0E0EAC0E0E9C0E0EE120A93D005
:10095000E0F9D0E0FAD0E0FB120D14FF60AAEBC082
:10096000E0EAC0E0E9C0E012083BD0E02401F9D0A1
:10097000E03400FAD0E0FBE5490460DCD549D980D9
:10098000877BFF7A0A798FD202809C791080027966
:1009900008C206C2088008D2D5790A8004790AC242
:1009A000D5E549047002F549E4FAFDFEFF1208009E
:1009B000FC7B08200113120800FD7B1030000A1296
:1009C0000800FE120800FF7B20EC3382D592D55040
:1009D00013C3E43000069FFFE49EFEE42001039D64
:1009E000FDE49CFCE4CBF8C201EC700CCFCECDCC86
:1009F000E824F8F870F38017C3EF33FFEE33FEED11
:100A000033FDEC33FCEB33FB994002FB0FD8E9EBF1
:100A1000300105F8D0E0C448B201C0E00AEC4D4E08
:100A20004F78207B0070C2EAB5490040BCC0E0129C
:100A30000A95D0F0D0E0200104C4C0E0C4B201C0E7
:100A4000F0120824D0F0D5F0EB020874120D7C09E6
:100A50001153098B5808E24C08DE42098F4F099761
:0F0A60004409974908F743099D550981460981C3
:100A6F00450981470B3D5008E62D08EA2E090D2B4D
:100A7F0008EE23090B200B262A08A64800000905BB
:100A8F003F3F3F00790AA2D5200314300509B91062
:100A9F00020404B9080104A2D52006025001042063
:100AAF0002689202B548005034C0E07F203003192D
:100ABF007F30A20272067205500F120AECC202C2F8
:100ACF0006C205C2087F30800F300503E9C0E0126F
:100ADF00083B300503D0E0F9D0E0B548CC3005171E
:100AEF007F30B9100C12083B7F583004077F788095
:100AFF0003B9080312083B3002057F2D02083B7F24
:100B0F00202008F87F2B2006F322920280CF286E38
:100B1F00756C6C2900D2011208003001F8C20178FF
:100B2F004830D50108F60208A62D5043495812083F
:100B3F00002403B405004001E4900B389312082CF5
:0D0B4F00743A12082CD20375480402098B79
:100D3F00BB010CE58229F582E5833AF583E0225069
:100D4F0006E92582F8E622BBFE06E92582F8E222B3
:0D0D5F00E58229F582E5833AF583E49322CD
:100D6C00FAE6FB0808E6F925F0F618E6CA3AF62288
:100D7C00D083D082F8E4937012740193700DA3A306
:100D8C0093F8740193F5828883E47374029368601A
:060D9C00EFA3A3A380DF1A
:100F7700EFB40A07740D120F82740A309811A899FA
:100F8700B8130CC2983098FDA899C298B811F630DA
:070F970099FDC299F59922B2
:00000001FF
