:03000000020DEC02
:0C0DEC00787FE4F6D8FD75815D020E33BF
:040006007F0ADFFE90
:01000A0022D3
:08127A007F367EC7DEFEDFFCBB
:011282002249
:0D122500007F087E017DF3DDFEDEFCDFFAB8
:011232002299
:1011AC00D2B3C2B312127AD2B320B3FD30B3FD2046
:0311BC00B3FD225E
:10101B001211ACE4FDFCE4F9FBFA30B3FD1200064F
:10102B0030B308752B0130B30580FBE4F52BE925B4
:10103B00E0452BF90BBB00010AEB64084A70DB742B
:10104B00102DF8A6010DBD00010CED64054C70C60A
:01105B002272
:100E78008B258A26892712101BAF11EF3395E0FEC8
:100E8800AD10ED3395E0FCED2FFFEC3EFEAD12ED1D
:100E98003395E0FCEF2DFFEE3CFEAD13ED3395E00E
:100EA800FCEF2DFFEE3CFEAD14ED3395E0FCEFB505
:100EB800051DEEB50419AB28AA29A92AE510120BBD
:100EC800E6AB25AA26A927E512120BE67F0022AB7E
:100ED80028AA29A92A74FF120BE6AB25AA26A92756
:060EE800120BE67F01225F
:06120700C2A18F80D2A2FB
:08120D007FC8AE071FEE70FA66
:0112150022B6
:0A125C00C2A0121207C2A202120D76
:0A126600D2A0121207C2A202120D5C
:10000E007F3812125C7F0C12125C7F0612125C7F1C
:04001E000102125C6D
:06105C008B3B8A3C893D3C
:10106200EF7006ED2480FF8004ED24C0FF12125CB5
:10107200AB3BAA3CA93D120BCD6013053DE53D708B
:0E10820002053C14F9120BCDFF12126680E23B
:01109000223D
:080FD0008F258D268A278B284E
:100FD800E4FBEBC39529503AE52570047F80800235
:100FE8007FC0E5262F252914C39BFF12125CAE276C
:100FF800AF287C007D0A120BF8ED2430FF12126630
:10100800AE27AF287C007D0A120BF88E278F280B9D
:0210180080C096
:01101A0022B3
:100699005B44454255475D20524157204255463AF1
:1006A90020000D0A002564202564005B444542555D
:1006B900475D20444143204F55542054454D503AFD
:1006C900200025750D0A005B44454255475D2044CD
:1006D9004143204F55542048554D493A20005B4429
:1006E900454255475D2052415720465245512042C7
:1006F90055463A20002564005B44454255475D2034
:10070900444143204F555420465245513A20004315
:100719004D443A0020202020202020202020202085
:10072900202020200054454D50455220414C415233
:100739004D0D0A0048554D4920414C41524D0D0A75
:10074900004652455120414C41524D0D0A00544535
:100759004D504552204E4F524D414C0D0A004855BF
:100769004D49204E4F524D414C0D0A0046524551BC
:10077900204E4F524D414C0D0A0048414C462056DF
:10078900414C55453A20005B44454255475D20554B
:100799004152545F496E69740D0A005B44454255E4
:1007A900475D204C43445F496E69740D0A005B4400
:1007B900454255475D2054696D6572305F496E69E0
:1007C900740D0A005B44454255475D20494E54303B
:1007D9005F496E69740D0A005B44454255475D20C7
:1007E900496E697420446F6E650D0A00574149547A
:1007F90020434D4420202020202000465245513AD4
:1008090020202020202020487A00465245513A25B0
:10081900750D0A0054656D703A2020202043004868
:10082900756D693A202020202500543A2575204805
:100839003A25750D0A005B44454255475D204448F9
:10084900543131204641494C0D0A00444854313154
:10085900204641494C0D0A0020202020202020203C
:0708690020202020202000C8
:10117500C114010800C113010F00010E00C11201C5
:0C1185000B00020C000002090000C195E4
:041288000000002240
:0F121600D291D290121288C291121288C29022E5
:0E123300C290C291121288D290D291021288FB
:0311350012110F85
:10113800E4FFD291D2903091100FEFD394FA7480DB
:0D114800948040F2C2907F0122C2907F008F
:011155002277
:10110F00E4FEEEC39408748094805017C290EF30C1
:10111F00E7028001C39291EF25E0FFD2901212886F
:05112F000E80DFC290FC
:011134002298
:10119200AD071212167F901211357F40121135AF32
:0A11A2000512110F1211380212336A
:10115600E4FFEFC39414748094805012E4FEEEC34F
:0E11660094FA7480948050030E80F30F80E49E
:011174002258
:060D34008B3B8A3C893D67
:100D3A00E4F53EF53FF540F5417BFF7A06799912D5
:100D4A001097AB3BAA3CA93D121097121091754718
:100D5A00FF7548067549AE754A00754B00754C3EDD
:100D6A00754D00754E00754F40AB3BAA3CA93D122C
:100D7A000400AF3F1211927BFF7A0679B4121097E2
:100D8A00754200853F437547FF7548067549CB850F
:100D9A00424A85434B7B017A0079141200827B0117
:070DAA007A00791412109782
:100DB100121156AF411211927BFF7A0679D01210AF
:010DC100979A
:100DC2007542008541437547FF7548067549CB85D5
:100DD200424A85434B7B017A00791C1200827B01D7
:070DE2007A00791C12109742
:030DE9000211569E
:060EEE008B3B8A3C893DAC
:100EF400E4F53EF53F7BFF7A0679E7121097AB3BAA
:100F0400AA3CA93D1210971210917547FF75480627
:100F14007549FE754A00754B00754C3EAB3BAA3CC7
:100F2400A93D120400AF3F1211927BFF7A077901A9
:030F340012109701
:100F3700754000853F417547FF7548067549CB8564
:100F4700404A85414B7B017A0079141200827B016C
:070F57007A007914121097D3
:030F5E0002115627
:1011BF00759850438920758DFD758BFDD28ED2ACFD
:0311CF00D2AF227A
:1011E5005389F0438901758C3C758AB0D2A9D28C9C
:0111F50022D7
:0E12410053890F438950E4F58DF58BD28E2230
:03128C00D28822E3
:061091007BFF7A0679AB3B
:101097008B448A458946AB44AA45A946120BCD60C5
:1010A700160546E5467002054514F9120BCDF5996C
:0810B7003099FDC29980DF228F
:0300230002087060
:10087000C0E0C0F0C083C082C0D075D000C000C04E
:1008800001C002C003C004C005C006C00720980311
:03089000020A1A3F
:10089300859939C298C3E50F940B74809480501DD9
:1008A300E539640D6017E539640A6011AF0F050F70
:1008B30074242FF582E43400F583E539F0E53964D7
:1008C3000D6009E539640A6003020A1AD3E50F943F
:1008D30000748094805003020A1A7424250FF58251
:1008E300E43400F583E4F0753EFF753F0775401867
:1008F300F5417542047B017A007924120F61EF33CD
:1009030095E04F60030209E2C3E50F9405748094F8
:060913008050030209E21E
:10091900900028E0F53AE53AB45302D214E53AB426
:100929004502C214E53AB44124750E00750C0075F0
:100939000D00C2127BFF7A07791DE4FDFF12105CDE
:100949007BFF7A07791DE4FD7F0112105CE53A64AB
:10095900427023750E01F50CF50DF50BC2127BFFE4
:100969007A07791DFDFF12105C7BFF7A07791DE478
:10097900FD7F0112105CE53AB4580BC2927BFF7AF5
:1009890007792E121097E53AB4590BC2937BFF7A77
:1009990007793D121097E53AB45A0BC2947BFF7A56
:1009A90007794A121097E53AB4780BD2927BFF7A0D
:1009B900077957121097E53AB4790BD2937BFF7AEE
:1009C900077967121097E53A647A7042D2947BFFEF
:0709D9007A077975121097EF
:1009E00080357BFF7A0779831210977B017A007933
:1009F00024121097121091AF0EEF700B7B017A004A
:100A00007924120D348010AF0EEF640170097B0160
:0A0A10007A007924120EEE750F0033
:100A1A00D007D006D005D004D003D002D001D00030
:0B0A2A00D0D0D082D083D0F0D0E032DA
:03000B000210BF21
:1010BF00C0E0C0D075D000C007758C3C758AB005F4
:1010CF000BAF0BC3EF9414748094804005750B0025
:0910DF00D212D007D0D0D0E032CB
:0300030002124F97
:0D124F00C0E0050DE50D7002050CD0E03289
:100A35007BFF7A0779901210971211BF7BFF7A0717
:100A450079A412109712000E7BFF7A0779B712105E
:100A5500971211E57BFF7A0779CD12109712128C48
:100A6500D2AF7BFF7A0779E11210977BFF7A07797E
:100A7500F5E4FDFF12105C30140BAF0EEF6401704E
:100A850004D2A88002C2A8201403020BA7AF0EEF60
:100A950064017040201203020BC7C212C2AF850C5D
:100AA50009850D0AF50CF50DD2AF7BFF7A0879049F
:100AB500FDFF12105C752905AB0AAA097D06E4FF46
:100AC500120FD07547FF75480875491385094A8582
:100AD5000A4B8072AF0EEF6003020BC720120302B0
:100AE5000BC7C212C2AFF528752900752A24FB7AF7
:100AF500007923120E78EF705ED2AF7BFF7A08790A
:100B05001DFDFF12105C7BFF7A087928E4FD7F014B
:100B150012105CE523FB7A007529027D06E4FF12BD
:100B25000FD0E524FB7A007529027D067F01120F9F
:100B3500D07547FF754808754933754A0085234BBD
:100B4500754C0085244D7B017A0079001200827B6B
:100B5500017A0079008046D2AF7BFF7A08793F128F
:100B650010977BFF7A08791DE4FDFF12105C7BFF6F
:100B75007A087928E4FD7F0112105C7529027B63F0
:100B85007A007D06E4FF120FD07529027B637A0097
:100B95007D067F01120FD07BFF7A087954121097DA
:100BA5008020E4F50CF50D7BFF7A0779F5FDFF1242
:100BB500105C7BFF7A087961E4FD7F0112105C12FD
:080BC5001225121156020A7CF0
:100DF800020A35E493A3F8E493A34003F68001F2D2
:100E080008DFF48029E493A3F85407240CC8C333FB
:100E1800C4540F4420C8834004F456800146F6DFCA
:100E2800E4800B0102040810204080901175E47ED4
:100E3800019360BCA3FF543F30E509541FFEE493BF
:100E4800A360010ECF54C025E060A840B8E493A386
:100E5800FAE493A3F8E493A3C8C582C8CAC583CAB1
:100E6800F0A3C8C582C8CAC583CADFE9DEE780BE69
:01119100005D
:100BCD00BB010689828A83E0225002E722BBFE0226
:090BDD00E32289828A83E4932259
:100BE600BB010689828A83F0225002F722BBFE01EE
:020BF600F322E8
:100BF800BC000BBE0029EF8DF084FFADF022E4CCE1
:100C0800F875F008EF2FFFEE33FEEC33FCEE9DECA9
:100C1800984005FCEE9DFE0FD5F0E9E4CEFD22EDEF
:100C2800F8F5F0EE8420D21CFEADF075F008EF2F39
:100C3800FFED33FD4007985006D5F0F222C398FD2A
:050C48000FD5F0EA22C7
:10002600E5532447F8E60553227844301002784712
:10003600E475F001120CCA020BCD2009EB7F2ED21B
:10004600098018EF540F2490D43440D4FF300D0BA0
:10005600EF24BFB41A0050032461FFE55460021573
:10006600540557E5577002055630100D7844E4756F
:10007600F001120CCAEF020BE60210E87403D2106C
:100086008003E4C210F5538B448A458946E4F5544F
:10009600F556F557E55460077F2012006180F57527
:1000A60055FFC20AC209C20BC20CC20EC20FC21150
:1000B60012002FFF700D3010057F00120072AF572F
:1000C600AE5622B4255FC2D5C20D12002FFF24D032
:1000D600B40A00501A75F00A785430D50508B6FFF0
:1000E6000106C6A426F620D5047002D20C80D924B7
:1000F600CFB41A00EF5004C2E5D20D020272D20A42
:1001060080C6D20980C0D20B80BCD2D580BAD20EAE
:1001160080B47F20120061200B077401B5540040A3
:10012600F1120026FF12006102009AD211D20F804E
:1001360095120026FB120026FA120026F94A4B7089
:100146000679437A037BFF200B2EE554602A7E0056
:100156008E82758300120C4D60060EEE655570F0AA
:10016600C2D5EBC0E0EAC0E0E9C0E0EE1202B9D0C9
:10017600E0F9D0E0FAD0E0FB120BCDFF60AAEBC0AD
:10018600E0EAC0E0E9C0E0120061D0E02401F9D065
:10019600E03400FAD0E0FBE5550460DCD555D980A3
:1001A600877BFF7A0279B5D20B809C791080027921
:1001B60008C20FC2118008D2D5790A8004790AC212
:1001C600D5E555047002F555E4FAFDFEFF1200264A
:1001D600FC7B08200A13120026FD7B1030090A1248
:1001E6000026FE120026FF7B20EC3382D592D550E6
:1001F60013C3E43009069FFFE49EFEE4200A039D34
:10020600FDE49CFCE4CBF8C20AEC700CCFCECDCC5E
:10021600E824F8F870F38017C3EF33FFEE33FEEDF2
:1002260033FDEC33FCEB33FB994002FB0FD8E9EBD3
:10023600300A05F8D0E0C448B20AC0E00AEC4D4ED8
:100246004F78207B0070C2EAB5550040BCC0E01272
:1002560002BBD0F0D0E0200A04C4C0E0C4B20AC099
:10026600F012004AD0F0D5F0EB02009A120CEA0127
:10027600375301B15801084C01044201B54F01BD85
:0F0286004401BD49011D4301C35501A74601A70E
:100295004501A747036350010C2D01102E01332B97
:1002A500011423013120034C2A00CC480000012B06
:1002B5003F3F3F00790AA2D5200C14300E09B91032
:1002C500020404B9080104A2D5200F02500104203C
:1002D5000B68920BB554005034C0E07F20300C19E8
:1002E5007F30A20B720F720E500F120312C20BC297
:1002F5000FC20EC2117F30800F300E03E9C0E0122D
:100305000061300E03D0E0F9D0E0B554CC300E17C3
:100315007F30B9100C1200617F58300D077F78804F
:1003250003B90803120061300B057F2D0200617FC0
:10033500202011F87F2B200FF322920B80CF286EFF
:10034500756C6C2900D20A120026300AF8C20A78A8
:100355005430D50108F60200CC2D504349581200FF
:10036500262403B405004001E490035E9312005275
:0D037500743A120052D20C7554040201B10A
:10038200E559300C0104F823282447F82278443038
:100392000C027847E475F001120CCA020BCD60EC36
:1003A200C55D7002155C14C55D200C04FF0212834A
:1003B200784474FFF5F0020CDAFF0211D2E55A60BC
:1003C20006D55A037F0022200C0F1211F6EF6008A7
:1003D200055DE55D7002055C227844120CC1120BCA
:1003E200CDFF60E97844E475F001120CCA80DE1298
:1003F20003C9EFC0E01203BBD0E040F380A0D20CEF
:100402008002C20C8B448A458946E4F55BF559F5B6
:100412005CF55D755A00C20BC209C20AC20D120315
:100422008FFF7005AF5B7E0022B4253012038FFF71
:1004320024D0B40A00500C75F00AC55AA4255AF506
:100442005A80E924CFB41A00EF5002C2E5020665D1
:10045200D20A80D8D20980D4D20D80D0EF1203BB49
:1004620050081203F1EF600E80A9EFC0E01203C939
:10047200D0E06F609EEF60741203A080A71203C9E0
:10048200EF6069E55A7007055A80031203C9EF60ED
:1004920014200D0E120382E475F001120CCAEF1241
:1004A2000BE6D55AE6200D040559055B80BA120306
:1004B200BFEFC0E01203BBD0E050041203A0E4FF80
:1004C200200D0E120382E475F001120CCAEF120B1A
:1004D200E6EF70DA200D040559055B808BE55A6062
:1004E20002055A1203F11203BFEF70C6300C04E486
:1004F2001203A0E55B60030204267EFF7FFF222039
:100502000D1174FFFCFDFEFF120382120CC1120CCE
:10051200A70559020415D0E080D27900800A79102B
:10052200800679088002790AD20EE55A6002055ADD
:10053200E9C0E01203F1EF60DD1203C9BF2D04D25E
:100542000B8003BF2B091203F1EF60CA1203BFD065
:10055200E0B40A028033B40802802EBF3027700252
:100562007408C20EC0E01203BFD0E0BF780280035D
:10057200BF5816055AD55A028007D55A04D20E80A2
:100582000B741080197002740ABF000AEFF8E4FCC1
:10059200FDFEFF020618C0E0EF1203A0D0E0F9E46E
:1005A200FCFDFEFFE9C0E0ECC0E0EDC0E0EEC0E023
:1005B200EFC0E01203BFEFF8D0E0FFD0E0FED0E0E2
:1005C200FDD0E0FCD0F0E8604DB461004007B47BA0
:1005D200005002C2E524D0503DFA24F6500724F917
:1005E2005034240AFAEAB5F000502BCFA9F0A42F18
:1005F200FF92D5E9C5F0CEA4A2D53EFE92D5E9C5BB
:10060200F0CDA4A2D53DFD92D5E9C5F0CCA4A2D5EA
:0B0612003CFCC20E808EE8C0E0200D12
:10061D002A200E08055B300B03120C99120382126F
:10062D000CC1055920090B200A0DEE8FF0120C7A22
:10063D008009120CA78004EF120BE6D0E01203A084
:10064D00020415200D10120382120CC10559E55C30
:10065D00855DF0120C7A80E8120CEA04DF53052058
:10066D005804564C045242042E4805244F05284484
:10067D00047F43051C49052855050146050145051F
:0C068D000147045A2A06504E0000045E8B
:100F61008B3B8A3C893DAB3EAA3FA940120BCDFE8B
:100F7100AB3BAA3CA93D120BCDFF6E702BEF600D70
:100F8100E54215427002154114454170037F00226C
:100F91007401253DF53DE4353CF53C74012540F5F2
:100FA10040E4353FF53F80BEAB3BAA3CA93D120B67
:100FB100CDFDD3EE6480F8ED64809840037F01227B
:0F0FC100AB3EAA3FA940120BCDFFC3ED9FFF220D
:100C4D00BB010CE58229F582E5833AF583E022505C
:100C5D0006E92582F8E622BBFE06E92582F8E222A6
:0D0C6D00E58229F582E5833AF583E49322C0
:100C7A00BB010A89828A83F0E5F0A3F0225006F7C5
:0F0C8A0009A7F01922BBFE06F3E5F009F31922C2
:0E0C9900C3E49FFFE49EFEE49DFDE49CFC226C
:100CA700BB010789828A83020D1C5005E9F8020DF2
:0A0CB70010BBFE05E9F8020D28222B
:090CC100E6FB08E6FA08E6F92258
:100CCA00FAE6FB0808E6F925F0F618E6CA3AF6222B
:100CDA00FAE6FB0808E625F0F9F618E63AFAF622EB
:100CEA00D083D082F8E4937012740193700DA3A399
:100CFA0093F8740193F5828883E4737402936860AD
:060D0A00EFA3A3A380DFAC
:1010E800EFB40A07740D1210F3740A309811A89916
:1010F800B8130CC2983098FDA899C298B811F63068
:0711080099FDC299F599223F
:1011F60010160B121270BF0D027F0A0210E8AF150F
:0112060022C5
:051283008F15D21622B8
:1011D200EFC394094005EF940E4003BF2003D38070
:0311E20001C32224
:0C0D1000ECF608EDF608EEF608EFF6220F
:0C0D1C00ECF0A3EDF0A3EEF0A3EFF0224A
:0C0D2800ECF208EDF208EEF208EFF22207
:0A1270003098FDAF99C2987E00226D
:00000001FF
